S01800006275696C642F6D6963617A2F6D61696E2E73726563E5
S11300000C945F000C9447060C9451060C945B0608
S11300100C9465060C946F060C9479060C94870B6B
S11300200C9483060C947E000C947E000C94381877
S11300300C94D6190C948D060C94A3060C94D60635
S11300400C9436060C94D40F0C947E000C947E0011
S11300500C947E000C94B9050C947E000C947E00E4
S11300600C9498060C947E000C947E000C947E00F4
S11300700C947E000C947E000C947E000C947E0004
S11300800C947E000C947E000C947E0063109310FC
S113009096109F10F910D111EA11ED112012781267
S11300A0DA12E31211132C1333136E1329144D14A3
S11300B06114C3155B100E1600081C1814101124CB
S11300C01FBECFEFD0E1DEBFCDBF11E0A0E0B1E0B5
S11300D0EEEFFAE300E00BBF02C007900D92A631E9
S11300E0B107D9F712E0A6E1B1E001C01D92A93C25
S11300F0B107E1F70E9467160C947E1D0C94000072
S11301008FB7F894992708958FBF0895FC018281D1
S11301109927582F442781819927482B592BCA01A5
S1130120892F9927869586958370907082309105E2
S113013059F08330910559F0892B19F420E030E00F
S113014008C02CE93FEF05C022E030E002C028E0FF
S113015030E0CA0184E0989F812D992711248230D0
S1130160910559F08330910559F0892B19F480E0F9
S113017090E008C08CE99FEF05C082E090E002C0E7
S113018088E090E0280F391F2A5F3F4FCF01820F8C
S1130190931F0895282F9FB7F894662349F0E82FFA
S11301A0FF27EB5EFD4F8081882311F021E006C01C
S11301B0E22FFF27EB5EFD4F608320E0892F992714
S11301C08FBF822F99270895E82F8FB7F894282F8F
S11301D0332790E0FF27EB5EFD4F8081861709F4FB
S11301E091E02FBF892F99270895882311F06E9AE3
S11301F008956E980895882311F06F9A08956F9862
S1130200089580E00E94F500BA9ABB98B99AB89A0A
S11302106C9A80E00E94FB006B986A9881E00E94CF
S1130220F500709A8DB18C7F8DB908950F931F934B
S1130230CF93DF93182F8FB7F894C82FDD270C2F97
S113024061E080E00E94CA00882321F0CFBF85E0EE
S113025090E024C0809107018823A1F480912601B5
S1130260823081F409C082E0809326011092070154
S11302700E940101B89AC0981093040180E00FBF56
S113028099270CC080912601882369F38FB7F894CD
S11302909927109215028FBF81E0F1CFDF91CF91A2
S11302A01F910F910895282F9FB7F894E82FFF27E7
S11302B0E55BFE4F80818F3F81F4E091C302E2173A
S11302C071F40BC02093B40204C0FF27E55BFE4F1A
S11302D020832093C30220E007C025E005C080915D
S11302E0B4028F3F91F7EECF892F99278FBF822FCA
S11302F0992708951F93182F81E00E94F5001FB9D4
S1130300779BFECF8FB199271F910895FF920F938A
S11303101F93CF93DF93F82E8B018FB7F894C82FD8
S1130320DD2760E080E00E94E400882321F0CFBF55
S113033080E090E00CC0CFBF8F2D0E947A01812F06
S113034099270E947A01802F0E947A019927DF91D0
S1130350CF911F910F91FF9008958F929F92AF922A
S1130360BF92CF92DF92EF92FF920F931F93CF939E
S1130370DF938FB7F8949927C090BE02D090BF0244
S113038080900C0290900D02C091D801D091D901B7
S113039020912F0130913001FAE0AF2EB12CAC0E38
S11303A0BD1E2A153B0508F459018FBF7401EC0EDC
S11303B0FD1E86010C0F1D1F14C0C114D10419F0B9
S11303C0F801808101C080E00E947A0181149104C7
S11303D011F0F701808321960894E11CF11C0F5F52
S11303E01F4FC5010197C817D90738F381E00E9450
S11303F0FB009FB7F894C114D10431F0CC0EDD1E7C
S1130400F60180818FB901C01FB8D093D901C09380
S1130410D801892F99278FBF80E090E0DF91CF9199
S11304201F910F91FF90EF90DF90CF90BF90AF900E
S11304309F908F9008952FB7F894332750933001ED
S113044040932F019093BF028093BE0270930D02DC
S113045060930C021092D9011092D8012FBF452B42
S113046029F08FB10E94AD019927089580E10E947F
S1130470530180E090E008958FB7F8949927109283
S113048017028FBF089580E880934801109272018B
S11304901092B8021092B30210926B010895109258
S11304A0230110922201DE98DD98DE9A80E090E02C
S11304B00895CF93DF93FC0115A6DC019E96ED0110
S11304C01B821A82198280E886A7DF91CF91089552
S11304D02F923F924F925F926F927F928F929F9250
S11304E0AF92BF92CF92DF92EF92FF920F931F933E
S11304F0CF93DF93CDB7DEB728970FB6F894DEBF5E
S11305000FBECDBF20907B0130907C0140907D01D7
S113051050907E016624772488241EE4A12EB3E83B
S1130520BB2ECC24DD24EE24FF2400E010E0222D99
S1130530332D442D552D662D772D882D90E00E9466
S1130540641A29833A834B835C836D837E838F8310
S11305509887822E932EA42EB52E2401350100E215
S11305600E94621BA22EB32EC42ED52EC301B2014B
S113057096958795779567956A0D7B1D8C1D9D1DB6
S113058097FF05C09F776F5F7F4F8F4F9F4F60939B
S11305907B0170937C0180937D0190937E0128966A
S11305A00FB6F894DEBF0FBECDBFDF91CF911F9180
S11305B00F91FF90EF90DF90CF90BF90AF909F90FE
S11305C08F907F906F905F904F903F902F90089501
S11305D08FB7F8946091DC017091DD012CB53DB5C5
S11305E006B602FE04C06F5F7F4F2CB53DB5992758
S11305F08FBF88279927CB0177276627442755275C
S1130600622B732B842B952B0895EF92FF920F93FB
S11306101F930E94E8027B018C0120918601309196
S113062087014091880150918901809181019091C5
S11306308201A0918301B0918401820F931FA41FB2
S1130640B51FE216F3060407150730F08217930767
S1130650A407B50758F005C082179307A407B50788
S1130660E0F5E816F9060A071B07B8F59C01AD0189
S11306702E193F09400B510B213060E8360760E02A
S1130680460760E0560768F180E090E8A0E0B0E03B
S1130690E80EF91E0A1F1B1FE0928601F0928701E3
S11306A0009388011093890180E090E8AFEFBFEFD9
S11306B0E80EF91E0A1F1B1F2050304840405040CE
S11306C020938101309382014093830150938401EC
S11306D020E030E840E050E014C020E030E040E0AA
S11306E050E08093860190938701A0938801B09392
S11306F0890110928101109282011092830110925B
S11307008401A901B7012CB53DB5C9018E199F0912
S113071003968417950720F0B9016D5F7F4F02C0DF
S1130720640F751F6115710511F461E070E061508B
S113073070407BBD6ABD80E186BF87B7806187BF9B
S11307401F910F91FF90EF9008950F931F930FB790
S1130750F894112760938601709387018093880130
S11307609093890120938101309382014093830106
S1130770509384010E9405030FBF1F910F910895A8
S11307808FB7F8949927609124028FBF85E0689F02
S1130790B0011124625D7E4F706488E10E9486017D
S11307A008951F931FB7F89480916A01882319F460
S11307B060E070E009C060E08091BD02882309F424
S11307C061E081E06827772780917601882319F416
S11307D080E090E00AC090E080911A02882309F436
S11307E091E081E09827892F9927762F6627770F44
S11307F0770F770F54E0880F991F5A95E1F7826EAF
S11308009262682B792B81E10E948601812F9927BE
S11308108FBF1F9108958FB7F89499272BB334E0B5
S113082023272BBB8FBF089597B79F7D97BF90E277
S113083096BF882319F08EB5806402C08EB58F7B75
S11308408EBD87B7806287BF80E090E008957FB750
S1130850F89462B720913201309133014091340110
S11308605091350106B601FE0FC081B792B7280F2B
S1130870311D411D511D2F5F3F4F4F4F5F4F290FBA
S1130880311D411D511D04C0260F311D411D511D37
S1130890872F99278FBFCA01B9010895982F96957C
S11308A096959695EEEDF1E0E90FF11D877021E044
S11308B030E002C0220F331F8A95E2F78081822341
S11308C099270895DF92EF92FF920F931F938FB7AA
S11308D0F894282F3327D22E91B782B746B79817AA
S11308E011F041FF02C02FBF6AC08091D701882355
S11308F0E1F10E942704E0901102F09012020091AD
S11309001302109114022091440130914501409149
S11309104601509147016E197F09800B910B6217B4
S113092073078407950720F01092D70171E01EC069
S11309302E0D3F1D401F511F8091320190913301B4
S1130940A0913401B0913501281B390B4A0B5B0B84
S1130950273E31054105510540F4822F223010F025
S113096070E005C070E082E002C070E086EE682F9F
S1130970615000B601FCFDCF82B7681709F46F5FC0
S1130980209132013091330140913401509135016D
S1130990DA01C9010196A11DB11D860F911DA11D8A
S11309A0B11D82179307A407B50710F4622F609551
S11309B061BFDFBE772319F087E00E9453011F91C6
S11309C00F91FF90EF90DF900895AFB7F894BB2795
S11309D0E1E0E093D70160931102709312028093D7
S11309E013029093140220934401309345014093E1
S11309F0460150934701AFBF0E9462040895982FA7
S1130A00969596959695E9E4F1E0E90FF11D8770C6
S1130A1021E030E002C0220F331F8A95E2F7808183
S1130A208223992708958091B702882319F02FE132
S1130A3070E002C078E021E0622FEFB7F894809173
S1130A4069018E7F8093690187B1982F9F71829588
S1130A5086958695837019F080E090E012C0822F0D
S1130A608850863118F081E090E00BC040E050E0FF
S1130A703327892F99272817390711F441E050E0CB
S1130A80CA01982F9170990F809169018178262F5E
S1130A902F71422F440F440F892B842B80936901BB
S1130AA0332727B9783059F58091B5029091B60271
S1130AB021E08638920718F087E090E01FC0833C5D
S1130AC0910518F086E090E019C08136910518F080
S1130AD085E090E013C08033910518F084E090E045
S1130AE00DC08831910518F083E090E007C00C97A1
S1130AF018F082E090E002C080E090E0782F7770F8
S1130B00887D872B886D992786B98E2F99278FBF6B
S1130B100895AF92BF92CF92DF92EF92FF920F931C
S1130B201F93CF93DF93CDB7DEB728970FB6F89412
S1130B30DEBF0FBECDBF20E070E0E0910001F09178
S1130B40010132E14DE65CE46FE4809101019E2FE6
S1130B5028960FB6F894DEBF0FBECDBFDF91CF91BC
S1130B601F910F91FF90EF90DF90CF90BF90AF90C7
S1130B7008951F920F920FB60F9211242F933F9353
S1130B804F935F936F937F938F939F93AF93BF9391
S1130B90EF93FF9344B155B178948FB7F8949927A4
S1130BA020916901322F3695317021708FBF222335
S1130BB031F5339880919201813021F0823009F02F
S1130BC044C008C0332341F050930F0240930E02F7
S1130BD086E012C0332319F40E94130536C0109224
S1130BE092018091B702882381F510927F0150937E
S1130BF065014093640184E00E94530126C08FB7CD
S1130C00F89499278FBF2FB7F894332786B1582FBC
S1130C105770482F4072987D942B952B8074977B46
S1130C20982B90619F77892F992786B9887D842B8B
S1130C30852B87738061992786B9887D842B852BC2
S1130C40877B8069992786B92FBFFF91EF91BF9168
S1130C50AF919F918F917F916F915F914F913F9150
S1130C602F910F900FBE0F901F9018951F920F9207
S1130C700FB60F9211248F9383B783BF00B600FC85
S1130C80FDCF8F910F900FBE0F901F9018951F925C
S1130C900F920FB60F9211240F900FBE0F901F905A
S1130CA018951F920F920FB60F9211240F900FBE3A
S1130CB00F901F9018951F920F920FB60F92112448
S1130CC00F900FBE0F901F9018951F920F920FB6A2
S1130CD00F9211240F900FBE0F901F9018951F9222
S1130CE00F920FB60F9211240F900FBE0F901F900A
S1130CF018951F920F920FB60F9211240F900FBEEA
S1130D000F901F9018951F920F920FB60F921124F7
S1130D100F900FBE0F901F90189578941F920F920A
S1130D200FB60F9211240F900FBE0F901F901895BD
S1130D3078941F920F920FB60F9211240F900FBE4A
S1130D400F901F90189578941F920F920FB60F92E0
S1130D5011242F933F938F939F932FB7F8943327A6
S1130D608091DC019091DD0101969093DD018093E7
S1130D70DC012FBF9F918F913F912F910F900FBE58
S1130D800F901F9018950F931F93DC01ED91FC9128
S1130D901197828193818D939C9300811181CF015E
S1130DA00E94141DC8011F910F9108951F920F9264
S1130DB00FB60F9211242F933F934F935F936F932A
S1130DC07F938F939F93AF93BF93EF93FF9383B7D7
S1130DD083BF00B600FCFDCF81B799270196AA27EF
S1130DE0BB2720913201309133014091340150915D
S1130DF03501280F391F4A1F5B1F2093320130939E
S1130E003301409334015093350178940E94620475
S1130E10FF91EF91BF91AF919F918F917F916F91CE
S1130E205F914F913F912F910F900FBE0F901F90A4
S1130E301895EF920F931F93AE2D99E0899FF001BF
S1130E401124E152FE4F40835183628373830483F0
S1130E50158326833783A17080858E7F8A2B8260D9
S1130E60808788E00E9453011F910F91EF900895AD
S1130E70AF92BF92CF92DF92EF92FF920F931F93A4
S1130E80F82E5A016B010E942704AB01BC01F1E06A
S1130E90EF2E960185018F2D0E9419071F910F9146
S1130EA0FF90EF90DF90CF90BF90AF900895AF92F6
S1130EB0BF92CF92DF92EF92FF920F931F93CF9343
S1130EC0DF935B016C01C0E0D0E0EFEDF1E0608501
S1130ED061FFCDC02081318142815381E480F5805E
S1130EE006811781D601C501821B930BA40BB50B98
S1130EF08E159F05A007B10708F4B9C060FF03C0B1
S1130F006D7F608708C02E0D3F1D401F511F208339
S1130F10318342835383C23009F448C0C33018F488
S1130F20CC2341F0AAC0C33009F468C0C43009F02E
S1130F30A4C07EC09FB7F89420911A01222319F40B
S1130F4021E030E00FC080910201813019F020E0EF
S1130F5030E008C040E050E02150223010F441E07D
S1130F6050E09A01892F99278FBF222309F485C065
S1130F708FB7F894C82FDD279C2F80910201813010
S1130F8099F480911A01813021F480E00E94530188
S1130F9009C0823049F4809123028093020183E0E6
S1130FA080931A01CFBF69C09FBF67C08FB7F89401
S1130FB0C82FDD2780911A01882389F491E090934A
S1130FC01A0110922302CFBF80911B01882321F4C0
S1130FD081E00E94530151C090931C014EC0809146
S1130FE023028823F9F280E00E944E048823D1F67C
S1130FF08091DE0181608093DE01D4CF2FB7F89415
S11310003327809164008260809364002FBF2FB7E0
S1131010F8943327809165008D7F809365002FBFFE
S113102041E050E060E070E084E00E94380725C0B1
S11310302FB7F89433278091640082608093640012
S11310402FBF2FB7F8943327809165008260809377
S113105065002FBF0E942704AB01BC01EE2408EEFB
S113106013E020E030E082E00E94190706C02196D8
S11310703996C530D10509F02ACF88E00E94530182
S1131080DF91CF911F910F91FF90EF90DF90CF9060
S1131090BF90AF9008951F93CF93DF9380911D016C
S11310A0882319F081E090E053C08FB7F894282F7B
S11310B03327122F80912001882349F581E0809302
S11310C02001109275012FBF8FB7F8949927379A92
S11310D08FBF8FB7F894C82FDD279C2F8091030111
S11310E0813099F480912001813021F485E00E94BF
S11310F0530109C0823049F4809175018093030142
S113110083E080932001CFBF21C09FBF1FC0809187
S11311107501882311F42FBF19C080E00E94FF04D9
S1131120882319F085E090E007C08091490181602F
S11311308093490180E090E01FBF282F882319F491
S113114081E080931D01822F992702C020E0F8CF0F
S1131150DF91CF911F9108950F931F93182F0FB70D
S1131160F89461E080E00E94CA00882371F510932E
S11311700401809107018823A9F58091260182301A
S113118089F58FE00CC00E9401018091260188231B
S113119049F481E08093260110926C0181E10E9460
S11311A053012AC0809185018F3F31F5E0910601FA
S11311B0EE2311F11CC01092050104C0FF27EB5768
S11311C0FE4F10821092060117C081E090E002C029
S11311D0880F991F1A95E2F720912501282B209357
S11311E025010AC0809126018823E1F6CCCF8091A5
S11311F005018F3F19F7DFCF802F99278FBF80E03C
S113120090E01F910F9108951F9383E00E941601AF
S11312109927182F882319F083E00E94AC08812FA6
S113122099271F910895CF92DF92EF92FF920F9327
S11312301F93CF93DF938C01F62E6A01E22E8FB7B2
S1131240F894C82FDD2760E080E00E94E400882342
S113125021F0CFBF80E090E01EC0CFBF0F0D111D65
S1131260802F80680E947A01F82E16950795802FAA
S1131270807C0E947A010E2D0AC0EE2DFF27E01B10
S1131280F109EC0DFD1D80810E947A0101500023BB
S1131290A1F78F2D9927DF91CF911F910F91FF9087
S11312A0EF90DF90CF900895CF93DF93CDB7DEB763
S11312B02C970FB6F894DEBF0FBECDBF8FB7F8944E
S11312C0282FAE014F5F5F4FDA01EBE1F2E088E0D7
S11312D001900D928150E1F7809173019091740116
S11312E08987892F99278A8780918A0190918B0118
S11312F08B87892F99278C872FBF2CE060E080E6AD
S113130091E00E9413092C960FB6F894DEBF0FBE2D
S1131310CDBFDF91CF910895EF92FF921F93CF93AA
S1131320DF93E0907701F0907801F70182A5992787
S1131330182F882309F41FE1C09880916801811750
S113134049F0612F77276F717070606E706885E166
S11313500E94860110936801F70110818FB7F894F9
S1131360C82FDD2760E080E00E94E400882311F0AC
S1131370CFBF12C0CFBF8EE390E090938F018093D4
S11313808E018EE30E947A011150412F552760E0AF
S113139070E0C7010E941B02DF91CF911F91FF9063
S11313A0EF9008950F931F93CF93DF93EC010FB742
S11313B0F89411270E948600FC018FE380830FBFFD
S11313C01092BB021092BA0261E082E00E94CA004D
S11313D0882319F085E090E072C0809126028F5F27
S11313E08093260281508B838FB7F894082F11279E
S11313F062E081E00E94E400882329F40FBF0E9488
S11314003C0281E05BC08FB7F894992724E02093D5
S113141016028FBFD093D601C093D5010FBFFE0132
S11314203196818129819927982F88273327822B08
S1131430932B80729C7C8983892F992781832981AE
S1131440982F882733272164822B932B8983892F14
S1131450992781831CA618A619A619AA18AA1FA63B
S113146080E88EA761E0609319024091D501509104
S1131470D6018FB7F894282F3327809127019091B4
S113148028018830910511F0019711F02FBF15C084
S113149082E090E090932801809327016093C40236
S11314A05093780140937701109231012FBF0E942D
S11314B00409882311F40E948C0980E09927DF91A4
S11314C0CF911F910F910895CF93DF93DA01422FAB
S11314D02D3118F082E090E05EC0ED018B876E83C1
S11314E0872F99278F832FB7F8943327809173011F
S11314F0909174012FBFFD018483892F99278583DF
S11315002FB7F894332780910801909109012FBFD8
S11315108887892F992789873196818129819927FD
S1131520982F8827332720643868822B932B89834C
S1131530892F99278183435F4C934D5080910B01F0
S1131540882359F010920B01642FCD010E94D20917
S11315509927282F8823A9F417C0842F99279093BB
S1131560940180939301B0932C01A0932B0183E108
S11315700E94530180910B01882349F489E090E093
S11315800AC08FEF80930B01822F992704C0109219
S1131590800180E090E0DF91CF910895CF93DF93B5
S11315A0FB01DB0116968683892F9927ED01898338
S11315B087E083878091DA019091DB01892B19F010
S11315C085E090E02BC07093DB016093DA01435F08
S11315D040834D5080910E01882319F480E090E0FF
S11315E01DC08385ED0169817727762F66272681C3
S11315F03327622B732B10920E01242FAF010E940C
S1131600640A9927282F882339F081E080930E01FA
S11316101092DB011092DA01822F9927DF91CF918A
S113162008951F93CF93DF93182F8FB7F894C82F83
S1131630DD2760E080E00E94E400882321F0CFBF32
S113164080E090E005C0CFBF812F0E947A019927E6
S1131650DF91CF911F910895EF92FF920F931F9303
S1131660CF93DF93182F7B01042F8FB7F894C82FE3
S1131670DD2760E080E00E94E400882321F0CFBFF2
S113168080E090E014C0CFBF1064812F992790931D
S11316908F0180938E010E947A01182F402F5527C5
S11316A0B70180E090E00E941B02812F9927DF910F
S11316B0CF911F910F91FF90EF900895C098609182
S11316C02D0170912E0141E08FE30E942C0B0895AF
S11316D082E090E0909362018093610181E08093C5
S11316E0720120E030E080910401843011F421E0A3
S11316F030E0232B29F484E00E941601882319F496
S11317000E945E0B089584E00E94AC0808951F9225
S11317100F920FB60F9211242F933F934F935F9321
S11317206F937F938F939F93AF93BF93EF93FF93A5
S11317308091610190916201019749F482E090E007
S113174090936201809361010E94680B05C08091AF
S11317506B018F5F80936B01FF91EF91BF91AF910C
S11317609F918F917F916F915F914F913F912F91B5
S11317700F900FBE0F901F9018951F938091250115
S1131780882309F04BC0109104011F3F09F046C0A3
S113179060E00E94E400882309F440C081E0809363
S11317A0250280914A018823E1F11092250285E007
S11317B090E045C0923069F5C09A8091050120E01F
S11317C030E08F3F11F421E030E0232BE9F4109353
S11317D007018F3F19F42FEF30E00DC0282F332776
S11317E0F901EB57FE4F8081809305018F3F11F47F
S11317F010930601108320936C0181E080932601ED
S113180081E10E94530105C0109307011092260143
S113181011C080912601882369F00FC081E090E017
S11318200EC08091070190912601882319F292300D
S113183021F0EFCF80E00E94F50080E090E01F915E
S113184008951F93CF93DF939FB7F894C92FDD2793
S11318501C2F90910401981721F0CFBF81E090E0F4
S11318603AC08FEF80930401309125013323F1F4C2
S11318708FB7F8949927109215028FBF0E94BD0B61
S1131880CFBF11C02093040181E090E002C0880F13
S1131890991F4A95E2F780953823309325018FE00C
S11318A00E9453011FBF80E090E015C080E065E016
S11318B0E32FFF270E94E51B292F492F5527CF012E
S11318C0042E02C0959587950A94E2F780FDDACF3D
S11318D0822F8F5FEFCFDF91CF911F9108951F93D8
S11318E0CF93DF938FB7F894C82FDD271C2F8091F7
S11318F0610190916201892B29F484E00E94210CFA
S1131900CFBF1EC01092720180916B01882311F029
S1131910B79904C00E9908C0882319F081508093A8
S11319206B010E94680B0BC081E090E09093620110
S11319308093610110926B0184E00E94210C1FBF0F
S1131940DF91CF911F9108950E944302C09AC098DD
S113195088E00E94110B88E00E94110BC09A84E079
S11319600E94210C0E946F0C08951F93182F81E090
S113197090E0909328018093270110924A010E94DD
S1131980BD0B8FB7F8949927109321018FBF8BE07B
S11319900E9453011F9108950F931F930FB7F8945A
S11319A01127109228011092270187B78F7E87BFD5
S11319B087B78F7D87BF83E00E94210CC09A0FBF39
S11319C00FB7F894112710926201109261010E94DE
S11319D04302C09A89B78F7B89BF0FBF80E090E034
S11319E01F910F9108951F93CF93DF93EC0182E031
S11319F0CF37D80709F05AC010911601113009F0F9
S1131A0055C0109216018091790190917A01892B29
S1131A1009F038C009C010931601809179019091A2
S1131A207A01892B09F042C062E081E00E94E4005F
S1131A30882379F08FB7F894992723E0209316022E
S1131A408FBF0E94CC0C0E944F028AE00E94530177
S1131A502DC060E081E00E94E400882339F564E051
S1131A6081E00E94E400882341F08FB7F89499271D
S1131A7023E0209316028FBF19C063E081E00E9427
S1131A80E40014C089E791E00E94C30680938C02AD
S1131A90892F992780938B0242E0BE018FEF9FEF3D
S1131AA00E94CE0A882309F4B6CFB7CFDF91CF9135
S1131AB01F9108950F931F93CF93DF93182FEB017A
S1131AC0042FE82FFF27EE0FFF1FE652FE4F11826F
S1131AD0108210920E01E091DA01F091DB0130974F
S1131AE021F08091B90280FF0EC081E080930E0145
S1131AF003C085E10E9453011123B9F4602FCE0184
S1131B000E94F30C12C020812D5033276781772760
S1131B10762F662786819927682B792BAF018385D9
S1131B200E94640A882341F3E4CFDF91CF911F918F
S1131B300F9108959B0180910E01882349F46091CF
S1131B40DA017091DB016217730711F40E945A0DD8
S1131B500895CF92DF92EF92FF920F931F93CFB627
S1131B60F894DD240E946802DC01CB0166E470E095
S1131B700E94F11B6BE0E62EF12CE80EF91EF092A8
S1131B80C102E092C0020E94E80200271127A801C6
S1131B9097010E94A503CFBE1F910F91FF90EF9074
S1131BA0DF90CF9008951F93CF93DF938FB7F8946E
S1131BB0C82FDD271C2F80912701909128010897B9
S1131BC0C9F489E00E94110B83E00E94210CC09AA1
S1131BD081E090E090932801809327018FB7F894D7
S1131BE0992723E0209321018FBF8BE00E945301AA
S1131BF0CFBF30C0C0988091C402882311F085E023
S1131C0001C084E00E94110B83FD09C080E00E94A2
S1131C10110B83FF04C085E090E020E003C083E063
S1131C2090E021E09093280180932701C09A1FBF80
S1131C30222341F01092310183E00E94210C0E9482
S1131C40A90D08C00E94E80220E431E040E050E021
S1131C500E94A503DF91CF911F910895EF92FF9207
S1131C600F931F93CF93DF938B0180918E019091FB
S1131C708F0186FF40C18F7B8F3309F08EC1C091E5
S1131C802D01D0912E0158815093630180916101FF
S1131C90909162018530910509F443C08630910525
S1131CA009F48AC0029709F01FC185E090E090937F
S1131CB062018093610140914801852F9927019623
S1131CC0242F3327281739074CF1B79906C00E99EA
S1131CD004C0451B415040934801409163014A327E
S1131CE0E8F44423A1F0BE016F5F7F4F483018F041
S1131CF047E050E007C086E090E090936201809353
S1131D006101552780E090E00E941B0246C11092B9
S1131D107201C09A84E00E94210CE3C00E94A40CCA
S1131D203CC186E090E090936201809361018091D0
S1131D307601882309F439C080911A028823A9F511
S1131D40898185FF32C08F814E812FB7F894332764
S1131D5060918A0170918B012FBF9927982F882752
S1131D605527842B952B8617970759F08F812E8141
S1131D709927982F88273327822B932B8F5F9F4F88
S1131D80A1F489818770813081F4C09AC0988AE077
S1131D900E94110BC09AC098409163014750289645
S1131DA0BE018FE30E942C0BF8C0409163014750A1
S1131DB055272896BE01A6CFC09A80916B0188232F
S1131DC039F484E00E94210C80916B01882311F086
S1131DD0B7990AC00E9B08C09091B302992321F0D1
S1131DE0809163018B3038F480912D0190912E0104
S1131DF00E9459023DC0913001F5E091B802FF27DD
S1131E00EE0FFF1FEE0FFF1FE55DFD4F20813181B7
S1131E1042815381E0912D01F0912E0121ABBB272A
S1131E20A52F942F832F80ABCA01AA27BB2787A78E
S1131E30252F33274427552726A78091B8029927B1
S1131E40019668E070E00E94051C8093B8028091BE
S1131E50B30281508093B302882351F080912D0105
S1131E6090912E010E9459021092B8021092B3026E
S1131E7080916301FE01E80FF11D808187FF31C06D
S1131E80012B79F169816770E0912D01F0912E01A8
S1131E90623019F5A0917701B0917801109709F19A
S1131EA080912701909128010797D9F4ED019B8136
S1131EB083819817B1F487B78F7E87BF908181E0C3
S1131EC08CA7E90FF11D8291319688A780818F77C5
S1131ED089A780E00E94B50C04C0613011F482E14E
S1131EE02AC00E946F0C59C010927201C09A84E0FB
S1131EF00E94210C52C08E3309F04FC0C09A8091C9
S1131F002701909128010897C9F4C09889E00E949C
S1131F10110BC09A83E00E94210C81E090E0909321
S1131F202801809327018FB7F894992723E0209301
S1131F3021018FBF8BE00E9453012FC08091C40206
S1131F40882349F484E090E090932801809327014A
S1131F500E94D30D22C083E00E94210C83E090E014
S1131F6090932801809327010E946802DC01CB0131
S1131F7066E371E00E94F11B7BE0E72EF12CE80E92
S1131F80F91EF0924301E09242010E94E802002708
S1131F901127A80197010E94A503DF91CF911F91FA
S1131FA00F91FF90EF9008951F920F920FB60F922A
S1131FB011242F933F934F935F936F937F938F934A
S1131FC09F93AF93BF93EF93FF932FB1E0910C02D4
S1131FD0F0910D02309739F08091D8019091D90198
S1131FE0E80FF91F20838091D8019091D9010196BF
S1131FF09093D9018093D80180E00E94FB00409126
S11320002F01509130018091D8019091D90184170A
S1132010950718F40E94AD011CC060910C027091E8
S11320200D028091BE029091BF0210920D02109297
S11320300C021092BF021092BE0210923001109254
S11320402F011092D9011092D8012FB120E00E94E3
S11320502E0EFF91EF91BF91AF919F918F917F9140
S11320606F915F914F913F912F910F900FBE0F9001
S11320701F9018959F92AF92BF92CF92DF92EF92EA
S1132080FF920F931F93CF93DF93CDB7DEB7A8973B
S11320900FB6F894DEBF0FBECDBFE82FFF27E631A1
S11320A0F10508F0E5C5EA5BFF4FEE0FFF1F059051
S11320B0F491E02D09948091B902882309F4D8C5DC
S11320C090E011E08AC52FB7F8943327809123025A
S11320D08093020183E080931A012FBF10910201C3
S11320E08FB7F894282F3327922F809103018823E8
S11320F059F480912001833039F42FBF80911E015F
S1132100882309F0B5C502C09FBFB2C582E08093A1
S113211092011092B7020E94130581E080931E0180
S113212010936701A5C50E944B08A2C580911D01AB
S1132130813009F09DC51D98159883E0CCC28FB7F6
S1132140F894C82E80912001833009F041C0809119
S113215003018823E9F580914901882309F073C5B7
S11321606BC5ED2DE695E695E695FF274D2D552794
S1132170E75BFE4F9A012770307081E090E002C067
S1132180880F991F2A95E2F78095208128232083C0
S113219000931F0112C00F5F1F4F0130110511F48E
S11321A000E010E0D02E802F0E94FF048823C9F69F
S11321B00E151F0581F74FEF50E0409375018FEF27
S11321C08093030181E08093200185E00E94530104
S11321D0CFBE10921D0180911C01813011F40E9428
S11321E04B088FB7F894992710921C0110921B0189
S11321F038C210921E01A0906401B09065019090C5
S113220067018FB7F894C82E80911A01833009F0C2
S113221041C0809102018915E9F58091DE0188238E
S113222009F020C516C5ED2DE695E695E695FF2740
S11322304D2D5527E252FE4F9A012770307081E0F0
S113224090E002C0880F991F2A95E2F780952081BB
S1132250282320830093190112C00F5F1F4F013000
S1132260110511F400E010E0D02E802F0E944E04DE
S11322708823C9F60E151F0581F74FEF50E04093F0
S113228023028FEF8093020181E080931A0180E0A2
S11322900E945301CFBE992009F0EAC4809116012F
S11322A0882309F0E5C48091170190911801FC017D
S11322B0EE0FFF1FEB56FE4FB182A0820196909362
S11322C0180180931701809709F0D2C41092180165
S11322D01092170110927A011092790110927001F4
S11322E010926F01E0E0F0E0EE0FFF1FEB56FE4F9F
S11322F00081118184E090E00E946E1CDC01119643
S11323001C930E93FC0113821282E0917901F091E7
S11323107A01309731F490937A018093790107C060
S1132320FC01828193810097D9F7B383A283E09162
S11323306F01F09170013196F0937001E0936F0199
S1132340E032F1058CF261E081E00E94CA0088234A
S1132350E1F48FB7F894282F3327809122019091CC
S11323602301892B09F087C181E090E09093230138
S1132370809322012FBFDD9A0E94E80224E130E01D
S113238040E050E00E94A50373C462E081E00E9433
S1132390E400882309F06CC461E081E00E94E40059
S11323A067C42FB7F8943327809175018093030194
S11323B083E0809320012FBF80910301882309F0DB
S11323C057C4159A1D9A4AE050E060E070E00E94FC
S11323D038074EC4109292014BC480916601882341
S11323E061F52091270230912802409129025091F1
S11323F02A02EFB7F894FF2760911102709112023C
S11324008091130290911402E0904401F0904501F0
S113241000914601109147016E0D7F1D801F911F91
S1132420EFBF209327023093280240932902509350
S11324302A02109266010E94E5040E94270443C008
S11324400E9427045B016C018FB7F89499271092BE
S1132450D7018FBFBFEFEB2EBFEFFB2EBFEF0B2FCC
S1132460BFE71B2F60E0EFEDF1E0808581FF1CC02A
S113247080819181A281B381A6019501281B390B2A
S11324804A0B5B0BDA01C9012481358146815781EE
S1132490281B390B4A0B5B0B2E153F0540075107D0
S11324A01CF479018A0161E0399632E0EC30F307DB
S11324B0E1F6662309F4DCC31E141F04100611069A
S11324C02CF0C601B5010E945707D2C3E09227023F
S11324D0F09228020093290210932A0281E080934B
S11324E06601A8019701C601B5010E94E504C0C3B5
S11324F00FB7F894112781E00E941404A1E0EA2E9A
S1132500F12CF0922801E0922701109229011092F7
S11325104A01109268010FBF0FB7F89411270E9467
S11325204302F0926201E09261011092720189B754
S11325308F7B89BF80E488BF8AB780628ABF8AB7ED
S11325408F7E8ABF89B7806489BF0FBF8FB7F89425
S1132550082F11278091220190912301049719F4E7
S113256083E00E94110B0FBF0FB7F8941127C09A94
S113257080E00E94210C0FBF8FB7F894992722E0C6
S1132580209316028FBF89E791E00E94C3068093CF
S11325908C02892F992780938B0242E06FE772E0C7
S11325A08FEF9FEF0E94CE0A882351F481E080933D
S11325B0160106C08FB7F8949927109216028FBFA0
S11325C00E940B0455C38FB7F8949927F09021010A
S11325D08FBF63E081E00E94E400882341F00E9401
S11325E0CC0C0E944F028AE00E94530107C08FB7AF
S11325F0F894992722E0209316028FBF0091D50109
S11326001091D6010E943C028091BA029091BB02C3
S1132610892B09F02DC38FEF80930B014F2DB80147
S1132620D2C28FB7F894282F3327122F8091C20279
S1132630882309F581E08093C20280912201909160
S11326402301049721F481E00E94AC0803C08DE0CB
S11326500E9453011FBF0CC38FB7F894992710929F
S1132660C2028FBF05C38FB7F894282F33278091F8
S11326702401882311F02FBFFBC22FBF80B39927F9
S1132680E6E096958795EA95E1F7182F11709091F9
S11326908C0180918D018917D9F01917C9F484E050
S11326A090E090932301809322018FB7F8949927A7
S11326B021E0209324018FBF60E070E08DE10E944F
S11326C086010E945409C09AC09889E00E9453016F
S11326D010938D018EE00E945301CAC28FB7F89403
S11326E09927109104018FBF123009F465C013308B
S11326F030F4112359F0113009F0BAC248C0133034
S113270009F474C0143009F0B3C2A0C0C0988FB7E4
S1132710F894082F112780912201909123010297A8
S113272009F0B9C083E090E09093230180932201E3
S113273068E170E08DE10E94860181E080938C0164
S11327401092240180B3992776E0969587957A951F
S1132750E1F78170907080938D018EE00E945301A7
S113276081E00E94110B6FE772E08CE10E94860108
S11327700E94C0030E94D10366E57AE287E10E94C9
S113278086016FEF70E885E10E94860184C0C098DD
S113279086E00E94110B0E94C0030E94D1030E9494
S11327A05409C09AC09883E00E94110BC09A81E03A
S11327B00E94210C8DE08FCFC0988FB7F894082F1A
S11327C0112760E080E00E94E400882311F00FBF2D
S11327D00AC00FBF83E50E947A0180E00E947A015B
S11327E080E00E947A01C09A82E02DC08FB7F894ED
S11327F09927209127018FBF243039F0283041F0E8
S1132800223001F50E948C0933C20E94D30D30C2DC
S1132810C09889E00E94110BC09A83E00E94210CA9
S11328208FB7F894992721E030E030932801209362
S113283027018FBF8FB7F8949927109321018FBF79
S11328408BE049CF83E00E94210C12C20E945E0BF0
S11328500FC20FB7F894112740912F015091300106
S113286060910C0270910D028091BE029091BF02A2
S113287010920D0210920C021092BF021092BE022E
S11328801092300110922F011092D9011092D801A8
S113289020E00E942E0E0FBFEBC12FB7F894332710
S11328A080916C018093070182E0809326012FBF01
S11328B080910701882309F0DBC1B89AC0988FE0A2
S11328C00ACFA0912D01B0912E011C919D01210FE1
S11328D0311DF9018081881F8827881FFD0183A786
S11328E0F90180818F77FD0181A721503040F901E2
S11328F08081FD0180A7A0912D01B0912E01FD01E1
S113290032818FB7F894992720916A018FBF2223CF
S113291009F490C0832F9927969587959695879566
S1132920837090708230910541F5878146812FB77D
S1132930F894332760918A0170918B012FBF9927F6
S1132940982F88275527842B952B8617970719F4DA
S113295081E090E06CC0FD018781268140E050E079
S11329609927982F88273327822B932B8F5F9F4F8C
S113297011F441E050E0CA015AC0039709F0FAC0CB
S11329809E012F5F3F4F4BE152E088E0FA01019036
S1132990AF01F90101929F018150C1F79E012F5DA2
S11329A03F4FAE014F5F5F4F88E0FA010190AF01E6
S11329B0F90101929F018150C1F79E01275F3F4FAA
S11329C0AE014F5D5F4F88E0FA010190AF01F9015C
S11329D001929F018150C1F79E012F5E3F4FAE01CE
S11329E0475F5F4F88E0FA010190AF01F90101925E
S11329F09F018150C1F79E01275E3F4FAE014F5E9C
S1132A005F4F88E0FA010190AF01F90101929F0143
S1132A108150C1F748E050E0BE01675E7F4FCD01B1
S1132A2006960E946A1D892B09F0A4C003C088235E
S1132A3009F4A0C01D3008F49DC0E0902D01F09071
S1132A402E01F7012281822F992706E0969587951A
S1132A500A95E1F7039719F468E070E002C062E0B8
S1132A6070E0822F99279695879596958795837020
S1132A709070039719F488E090E002C082E090E03F
S1132A8026E030E0E20EF31E40E050E020E030E0CB
S1132A90F701E80FF91F8AEF9FEFE80EF91E05C052
S1132AA08191480F511D2F5F3F4F26173707C4F3FD
S1132AB0F70163818FEF8093BC028FB7F894782F6E
S1132AC020E030E0E6E3F1E080819181841795070E
S1132AD029F48281861731F12093BC022F5F3F4F86
S1132AE033962430310581F77FBF9091BC023FB704
S1132AF0F8949F3F21F080912A018917A9F420912D
S1132B002A01822F9927FC01EE0FFF1FE80FF91FFE
S1132B10EA5CFE4F5183408362832F5F23702093CE
S1132B202A010EC07FBF22C0892F9927FC01EE0F16
S1132B30FF1FE80FF91FEA5CFE4F51834083628355
S1132B40832F99278FBF0FB7F8941127C7010E94CD
S1132B508600FC0190810FBFF70183A5882331F023
S1132B609F3321F48FB7F89499278FBFF0922E01E9
S1132B70E0922D018FB7F8949927109272018FBFBC
S1132B800E946F0C75C09091800180910B01981781
S1132B9009F46EC090930B019923D1F400912B0199
S1132BA010912C0160919301C8010E94D209482F11
S1132BB05527442309F45CC08FEF80930B01609187
S1132BC02B0170912C01F80183850E949A0D50C04D
S1132BD08FEF80930B014CC0110F2091B902812F0C
S1132BE08223C1F0E92FFF27EE0FFF1FE652FE4FAD
S1132BF04081518111821082812F80952823209356
S1132C00B902992339F463E0CA010E94F30C110F4D
S1132C1091E0E3CF9F5F9830F8F22AC080910E01D3
S1132C20E82FFF27EE0FFF1FE652FE4F60817181F0
S1132C3041E00E945A0D1CC081E080930301109270
S1132C4020013798C5CA80911F01E82EFF2487010F
S1132C50A2CA81E08093020110921A0180931B01A1
S1132C6082E016CB80911901E82EFF248701F5CA72
S1132C70A8960FB6F894DEBF0FBECDBFDF91CF91FB
S1132C801F910F91FF90EF90DF90CF90BF90AF9086
S1132C909F9008958091B4028F3FB1F0282F33277D
S1132CA0F901E55BFE4F80818093B4028F3F11F4FC
S1132CB08093C3028FEF80832F3F31F0822F0E94D5
S1132CC03A1081E090E0089580E090E008951F9329
S1132CD0CF93DF93CDB7DEB7E0970FB6F894DEBF9E
S1132CE00FBECDBF1FB7F89446E150E06FEF70E020
S1132CF08BE491E00E94771D8FEF8093B402809360
S1132D00C30281E08EBD88E080BF83E083BF8CB5C1
S1132D109DB54AE72CB53DB52817390708F441504D
S1132D20442311F0C901F6CF92B782B78917E9F3AA
S1132D302CB53DB592B782B78917E9F38CB59DB52B
S1132D40821B930B409625E0969587952A95E1F78B
S1132D509093B6028093B50213BE83B78EBD8EB531
S1132D6080BF12BE1DBC1CBC8FEF86BF86B780938C
S1132D707C0080B7992787709070892BD1F7D29AFD
S1132D80D19AD09ADA9AD99AD89A15BA8FEF84BB85
S1132D90D498DC981DBC1CBC87B7846087BF8EB5F3
S1132DA0887F84608EBD16B80E944A168823E1F796
S1132DB08FEF80936D01E6E3F1E08FEF9FEF918356
S1132DC080831282339621E0E234F207C1F70E9435
S1132DD0680260932602809100019091010101969E
S1132DE0AA27BB2780937B0190937C01A0937D014C
S1132DF0B0937E018BE492E090932E0180932D0199
S1132E008E98B89A8C988FEF809385011092150252
S1132E10109216021092170210921802B89AD69ABB
S1132E20D59A8FB7F8949927209108013091090118
S1132E308FBF30938B0120938A010E94890529A7B3
S1132E403AA74BA75CA76DA77EA78FA798ABDE0117
S1132E509196FE01B99688E001900D928150E1F7B8
S1132E60DE015196FE01B19688E001900D928150E9
S1132E70E1F7DE015996FE01719688E001900D920A
S1132E808150E1F7ABE1B2E0FE01799688E0019070
S1132E900D928150E1F780910A0199279093740172
S1132EA0809373018FE1809310028AE1809324025E
S1132EB00E94890529A73AA74BA75CA76DA77EA7FF
S1132EC08FA798ABDE019196FE01B99688E0019038
S1132ED00D928150E1F7DE011196FE01B19688E072
S1132EE001900D928150E1F7DE011996FE013196B1
S1132EF088E001900D928150E1F7ABE1B2E0FE0170
S1132F00399688E001900D928150E1F7ABE1B2E08F
S1132F10FD0137969C9180818D939083319782E057
S1132F20EE31F807B9F781E080936A011092BD028F
S1132F308093760110921A0280B7886080BF8BE07C
S1132F4083BF86EE81BF87B7826087BF0E94620419
S1132F50109249011092DE010E944A168823E1F77B
S1132F60812F99278FBF78942FB7F89433278091B6
S1132F7064008260809364002FBF2FB7F8943327D6
S1132F80809165008260809365002FBF41E050E02E
S1132F9060E070E083E00E9438078FB7F894482F10
S1132FA055274BC087B7992783709070892B19F4E4
S1132FB0E5E0F0E013C080B7992787709070892B03
S1132FC0D1F781B792B7891B8C3030F082B7853F37
S1132FD018F4E3E0F0E002C0E2E0F0E087B7887BB9
S1132FE0C1F480917D008B7FA1F46E9912C08AB1E7
S1132FF090919A00892B887161F48091740082FD0C
S113300008C0379B03C081E090E005C085E090E0F4
S113301002C080E090E025B78E1708F4E82FFF2760
S1133020E854FF4FE491237E2062E22BE5BF7894BD
S11330308895F89485B78F7D85BF8091B4028F3FC2
S113304009F4B0CF282F3327F901E55BFE4F8081C7
S11330508093B4028F3F11F48093C3028FEF808377
S11330602F3F09F49FCF4FBF822F0E943A1095CF74
S113307078941F920F920FB60F9211242F923F92C1
S11330804F925F926F927F928F929F92AF92BF9274
S1133090CF92DF92EF92FF920F931F932F933F9360
S11330A04F935F936F937F938F939F93AF93BF934C
S11330B0CF93DF93EF93FF93C6B5D7B58FB7F8944B
S11330C0282E0E94E8029B012C1B3D0B4427552708
S11330D02B013C01421A530A640A750A80912701A4
S11330E0909128018530910521F0069709F0E0C000
S11330F0BFC086E090E0909328018093270131E0DF
S1133100332E30926E011092290180E00E94140443
S1133110E0917701F091780141AABB27A72D962D64
S1133120852D80ABC301AA27BB2787A7872D9927A5
S1133130AA27BB2786A7E0917701F091780185A59E
S1133140882309F484C06081655077274F01860E77
S1133150971EF4012081E1808281A3809927AA2708
S1133160BB27BA2FA92F982F882733274427552701
S1133170522F442733272227FF24002711278701B2
S1133180FF24EE242E293F29402B512BBB24CC2491
S1133190DD242A293B294C295D29822B932BA42B3E
S11331A0B52B84199509A609B7098383292F3A2FCA
S11331B04B2F552722839D014427552721838B2F8D
S11331C09927AA27BB278083C09824E0A40180E024
S11331D090E00E941309C09AF4012081E180828169
S11331E0A3809927AA27BB27BA2FA92F982F88270E
S11331F0332744275527522F442733272227FF24D8
S1133200002711278701FF24EE242E293F29402B74
S1133210512BBB24CC24DD242A293B294C295D29AC
S1133220822B932BA42BB52B840D951DA61DB71DA6
S11332308383292F3A2F4B2F552722839D0144271F
S1133240552721838B2F9927AA27BB278083E091B9
S11332507701F0917801818185FF02C030924A01A3
S113326083E00E94210C87B78F7E87BF84997AC040
S113327010926E0181E00E941404E0917701F091B4
S11332807801818185FF0FC087E090E09093280149
S1133290809327010E94E80220E031E040E050E002
S11332A00E94A50303C080E00E94B50C849B5AC011
S11332B080912901882391F580916E01882371F50D
S11332C011E010936E010E94140480B32091B302A4
S11332D0283098F4E091B802E20FFF27E770F0700D
S11332E0EE0FFF1FEE0FFF1FE55DFD4F4082518281
S11332F0628273822F5F2093B30210932901D093CB
S11333009101C093900184992DC0992734E096953A
S113331087953A95E1F7182F117001C010E080915C
S11333206E018130F9F410926E010E94140410921F
S113333029011123B9F48091900190919101C81B46
S1133340D90B2A9778F48091B302882319F081501D
S11333508093B3028091770190917801009711F0E6
S11333600E9459022FBEFF91EF91DF91CF91BF913F
S1133370AF919F918F917F916F915F914F913F9109
S11333802F911F910F91FF90EF90DF90CF90BF90FE
S1133390AF909F908F907F906F905F904F903F90F1
S11333A02F900F900FBE0F901F90189578941F9236
S11333B00F920FB60F9211241F932F933F934F93A5
S11333C05F936F937F938F939F93AF93BF93EF9389
S11333D0FF9387B78F7E87BF78941FB7F894809147
S11333E0810190918201A0918301B09184010097A1
S11333F0A105B10509F051C08091270190912801E0
S11334008530910561F18630910530F48330910562
S113341049F0049781F51AC087309105F1F00897B7
S113342051F514C0869B0FC084E090E0909328016E
S1133430809327010E94E80227E030E040E050E05A
S11334400E94A50318C00E94A90D15C00E9404097A
S1133450882389F40E94D30D0EC080E00AC089E05D
S11334600E94110B81E00E94140483E00E94210C4D
S113347087E00E94B50C809122019091230101976D
S113348071F482E090E09093230180932201DE980E
S1133490DE9A80E00E94AC0802C00E940503812FDE
S11334A099278FBFFF91EF91BF91AF919F918F911A
S11334B07F916F915F914F913F912F911F910F9049
S11334C00FBE0F901F901895ACE2B0E0EAE6FAE167
S11334D00C94371C222E332E442E552E662E772E16
S11334E0882E992EFE013196A8E01192AA95E9F74B
S11334F029823A824B825C826D827E828F82988698
S1133500FE013996B8E01192BA95E9F7A986BA8610
S1133510CB86DC86ED86FE860F87188B89819A819F
S1133520AB81BC8189A79AA7ABA7BCA77C018D01FD
S11335308FEF9FEFA0E0B0E0E822F9220A231B23DB
S113354089A59AA5ABA5BCA51D014424552489854C
S11335509A85AB85BC858DA39EA3AFA3B8A75C0158
S11335606D018FEF9FEFA0E0B0E0A822B922CA223C
S1133570DB228DA19EA1AFA1B8A53D018824992489
S1133580C801B701A60195010E94181C69A37AA37A
S11335908BA39CA3C801B701A40193010E94181C2A
S11335A07B018C01C201B101A60195010E94181C86
S11335B05B016C01C201B101A40193010E94181CBA
S11335C03B014C01EA0CFB1C0C1D1D1D89A19AA199
S11335D0ABA1BCA19D01442755272E0D3F1D401FC3
S11335E0511F2A153B054C055D0540F480E090E031
S11335F0A1E0B0E0680E791E8A1E9B1ECA01AA27AC
S1133600BB27860D971DA81DB91D8D8F9E8FAF8F6B
S1133610B8A3A9013327222789A19AA1ABA1BCA1F0
S1133620A070B070280F391F4A1F5B1F298F3A8F73
S11336304B8F5C8FA98CBA8CCB8CDC8CED8CFE8C84
S11336400F8D18A1FE01719698E011929A95E9F7F1
S1133650ED8AFE8A0F8B188F2D813E814F8158850C
S11336606DA17EA18FA198A50E94181C3B014C015D
S11336702D853E854F85588969A57AA58BA59CA57E
S11336800E94181C2D893E894F89588D260F371F9B
S1133690481F591F260D371D481D591D2D8B3E8B64
S11336A04F8B588F6D887E888F88988C2A2D3B2D60
S11336B04C2D5D2D662D772D882D992DE2E1AC964C
S11336C00C94531CA0E1B0E0E8E6FBE10C94371C39
S11336D0222E332E442E552E662E772E882E992E8A
S11336E0002309F466C088E0FE01319611928A95A0
S11336F0E9F729833A834B835C836D837E838F82CE
S11337009887E0E2E01B1E16CCF52D813E814F81A7
S11337105885602F772767FD7095DA01C901062E59
S113372004C0B695A795979587950A94D2F78D8787
S11337309E87AF87B88B04C0220F331F441F551FC9
S1133740EA95D2F789819A81AB81BC8104C0B69590
S1133750A795979587956A95D2F7282B392B4A2BED
S11337605B2B29873A874B875C8729843A844B846F
S11337705C846D847E848F8498881BC01D861E861D
S11337801F86188A2E2F332727FD309530952195D3
S11337903F4F8D819E81AF81B88504C0B695A795B2
S11337A0979587952A95D2F789879A87AB87BC879F
S11337B0DCCF222D332D442D552D662D772D882DCC
S11337C0992DE2E160960C94531C991B79E004C096
S11337D0991F961708F0961B881F7A95C9F780954C
S11337E00895AA1BBB1B51E107C0AA1FBB1FA61744
S11337F0B70710F0A61BB70B881F991F5A95A9F796
S113380080959095BC01CD01089597FB092E07265C
S11338100AD077FD04D0E5DF06D000201AF47095B5
S113382061957F4F0895F6F7909581959F4F089580
S1133830629FD001739FF001829FE00DF11D649F90
S1133840E00DF11D929FF00D839FF00D749FF00D1C
S1133850659FF00D9927729FB00DE11DF91F639FBD
S1133860B00DE11DF91FBD01CF01112408952F9260
S11338703F924F925F926F927F928F929F92AF92FC
S1133880BF92CF92DF92EF92FF920F931F93CF9349
S1133890DF93CDB7DEB7CA1BDB0B0FB6F894DEBFE0
S11338A00FBECDBF09942A88398848885F846E8406
S11338B07D848C849B84AA84B984C884DF80EE8050
S11338C0FD800C811B81AA81B981CE0FD11D0FB659
S11338D0F894DEBF0FBECDBFED010895CF93DF9303
S11338E0AC01029710F442E050E0A091C702B091FD
S11338F0C802FD01C0E0D0E020E030E020C08081BB
S113390091818417950769F482819381209719F036
S11339109B838A8304C09093C8028093C702CF011B
S113392032C04817590738F42115310519F08217A8
S1133930930708F49C01EF010280F381E02D309796
S1133940F1F62115310589F1C901841B950B049702
S113395008F4A901E0E0F0E026C08D919C91119754
S113396082179307E9F44817590779F4ED018A811E
S11339709B81309719F09383828304C09093C8028B
S11339808093C702CD0102964CC0841B950BFD01A8
S1133990E80FF91F4193519302978D939C933DC077
S11339A0FD01A281B3811097C1F68091C502909167
S11339B0C602892B41F480911101909112019093D8
S11339C0C6028093C5022091130130911401211580
S11339D0310541F42DB73EB780910F01909110014C
S11339E0281B390BE091C502F091C602E217F307D8
S11339F0B0F42E1B3F0B2417350788F0CA0102963A
S1133A002817390760F0CF01840F951F0296909311
S1133A10C6028093C50241935193CF0102C080E056
S1133A2090E0DF91CF910895CF93DF93009709F44D
S1133A304EC0EC0122971B821A82A091C702B0915A
S1133A40C802109711F140E050E001C0DC01AC174E
S1133A50BD0700F1BB83AA83FE0121913191E20FDE
S1133A60F31FEA17FB0771F42E5F3F4F8D919C9172
S1133A701197820F931F99838883FD01828193811B
S1133A809B838A834115510559F4D093C802C0938E
S1133A90C7021DC0FD0182819381AD010097B1F67B
S1133AA0FA01D383C28321913191E20FF31FEC1702
S1133AB0FD0769F42E5F3F4F88819981820F931F20
S1133AC0FA01918380838A819B8193838283DF912E
S1133AD0CF910895FB01DC0104C08D910190801900
S1133AE021F441505040C8F7881B990B0895DC011C
S1113AF001C06D9341505040E0F70895FFCFA0
S1133AFE01000101FFFFFFFF010022FFFFFF012074
S1093B0E00C902000000E2
S9030000FC
