:100000000C946E000C945F070C9469070C947307B2
:100010000C947D070C9487070C9491070C941E1A7E
:100020000C949B070C948D000C948D000C94B32BB6
:100030000C94AA1F0C94A5070C94BB070C94C4172E
:100040000C944E070C94DE210C948D000C948D00C2
:100050000C948D000C94D1060C948D000C948D00A2
:100060000C94B0070C948D000C948D000C948D00B2
:100070000C948D000C948D000C948D000C948D00CC
:100080000C948D000C948D000C948D007622A62289
:10009000A922B2220C231B25342537256A25C22527
:1000A00045264E267C2697269E26D9269427B827B5
:1000B000CC272E296D227F2905A84CCDB2D44EB96C
:1000C0003836A9020C50B9918688083CA6AAAA2AFB
:1000D000BE000000803F00081C18141011241FBE31
:1000E000CFEFD0E1DEBFCDBF11E0A0E0B1E0EEE99F
:1000F000F6E600E00BBF02C007900D92A631B107F3
:10010000D9F716E0A6E1B1E001C01D92AE30B1070B
:10011000E1F70E94E2290C944E330C9400008FB753
:10012000F894992708958FBF0895FC01828199273B
:10013000582F442781819927482B592BCA01892F91
:10014000992786958695837090708230910559F035
:100150008330910559F0892B19F420E030E008C074
:100160002CE93FEF05C022E030E002C028E030E09B
:10017000CA0184E0989F812D99271124823091052E
:1001800059F08330910559F0892B19F480E090E003
:1001900008C08CE99FEF05C082E090E002C088E0D3
:1001A00090E0280F391F2A5F3F4FCF01820F931F26
:1001B0000895282F9FB7F894662349F0E82FFF276A
:1001C000E65AFA4F8081882311F021E006C0E22F21
:1001D000FF27E65AFA4F608320E0892F99278FBFC7
:1001E000822F99270895E82F8FB7F894282F332767
:1001F00090E0FF27E65AFA4F8081861709F491E0D4
:100200002FBF892F99270895882311F06E9A08959A
:100210006E980895882311F06F9A08956F98089545
:1002200080E00E940401BA9ABB98B99AB89A6C9A75
:1002300080E00E940A016B986A9881E00E940401A4
:10024000709A8DB18C7F8DB908950F931F93CF93C2
:10025000DF93182F8FB7F894C82FDD270C2F61E09C
:1002600080E00E94D900882321F0CFBF85E090E094
:1002700024C0809107018823A1F480912901823054
:1002800081F409C082E080932901109207010E9445
:100290001001B89AC0981093040180E00FBF99270D
:1002A0000CC080912901882369F38FB7F8949927AE
:1002B00010925A058FBF81E0F1CFDF91CF911F914E
:1002C0000F910895282F9FB7F894E82FFF27E85E35
:1002D000FB4F80818F3F81F4E091D405E21771F4E8
:1002E0000BC02093C50504C0FF27E85EFB4F2083A9
:1002F0002093D40520E007C025E005C08091C50506
:100300008F3F91F7EECF892F99278FBF822F9927A3
:1003100008951F93182F81E00E9404011FB9779B55
:10032000FECF8FB199271F9108958F929F92AF9220
:10033000BF92CF92DF92EF92FF920F931F93CF93D2
:10034000DF938FB7F8949927C090CF05D090D00550
:1003500080901B0590901C05C091E504D091E604A7
:100360002091FA033091FB03EAE0AE2EB12CAC0EE3
:10037000BD1E2A153B0508F459018FBF7401EC0E10
:10038000FD1E86010C0F1D1F14C0C114D10419F0ED
:10039000F801808101C080E00E94890181149104EC
:1003A00011F0F701808321960894E11CF11C0F5F86
:1003B0001F4FC5010197C817D90738F381E00E9484
:1003C0000A019FB7F894C114D10431F0CC0EDD1EA0
:1003D000F60180818FB901C01FB8D093E604C093A5
:1003E000E504892F99278FBF80E090E0DF91CF91BE
:1003F0001F910F91FF90EF90DF90CF90BF90AF9043
:100400009F908F9008952FB7F89433275093FB0354
:100410004093FA039093D0058093CF0570931C0509
:1004200060931B051092E6041092E5042FBF452B44
:1004300029F08FB10E9495019927089580E10E94CB
:10044000620180E090E008958FB7F89499271092A8
:100450005C058FBF089580E88093150410923F04D7
:100460001092C9051092C40510923A040895109292
:10047000260110922501DE98DD98DE9A80E090E05A
:1004800008951F93CF93DF93182F8FB7F894C82F39
:10049000DD2760E080E00E94F300882321F0CFBFD9
:1004A00080E090E005C0CFBF812F0E94890199278D
:1004B000DF91CF911F910895CF93DF93FC0115A693
:1004C000DC019E96ED011B821A82198280E886A7C4
:1004D000DF91CF9108952F923F924F925F926F924A
:1004E0007F928F929F92AF92BF92CF92DF92EF92C4
:1004F000FF920F931F93CF93DF93CDB7DEB728976B
:100500000FB6F894DEBF0FBECDBF209046043090EA
:100510004704409048045090490466247724882476
:10052000BEE4AB2EA3E8BA2ECC24DD24EE24FF24B7
:1005300000E010E0222D332D442D552D662D772D12
:10054000882D90E00E94512D29833A834B835C8350
:100550006D837E838F839887822E932EA42EB52E53
:100560002401350100E20E944F2EA22EB32EC42E8C
:10057000D52EC301B20196958795779567956A0D3B
:100580007B1D8C1D9D1D97FF05C09F776F5F7F4F63
:100590008F4F9F4F609346047093470480934804A5
:1005A0009093490428960FB6F894DEBF0FBECDBFD6
:1005B000DF91CF911F910F91FF90EF90DF90CF903F
:1005C000BF90AF909F908F907F906F905F904F9073
:1005D0003F902F9008958FB7F8946091EB0470913D
:1005E000EC042CB53DB506B602FE04C06F5F7F4F2C
:1005F0002CB53DB599278FBF88279927CB01772741
:10060000662744275527622B732B842B952B08953F
:10061000EF92FF920F931F930E94EB027B018C01DC
:100620002091530430915404409155045091560444
:1006300080914C0490914D04A0914E04B0914F04D0
:10064000820F931FA41FB51FE216F30604071507B8
:1006500030F082179307A407B50758F005C082173A
:100660009307A407B507E0F5E816F9060A071B0784
:10067000B8F59C01AD012E193F09400B510B2130FB
:1006800060E8360760E0460760E0560768F180E002
:1006900090E8A0E0B0E0E80EF91E0A1F1B1FE092F0
:1006A0005304F0925404009355041093560480E0D0
:1006B00090E8AFEFBFEFE80EF91E0A1F1B1F205096
:1006C00030484040504020934C0430934D044093B8
:1006D0004E0450934F0420E030E840E050E014C056
:1006E00020E030E040E050E08093530490935404C5
:1006F000A0935504B093560410924C0410924D04EC
:1007000010924E0410924F04A901B7012CB53DB5CB
:10071000C9018E199F0903968417950720F0B90126
:100720006D5F7F4F02C0640F751F6115710511F475
:1007300061E070E0615070407BBD6ABD80E186BFC2
:1007400087B7806187BF1F910F91FF90EF90089549
:100750000F931F930FB7F89411276093530470936E
:100760005404809355049093560420934C04309382
:100770004D0440934E0450934F040E9408030FBF52
:100780001F910F9108958FB7F89499272BB334E0F8
:1007900023272BBB8FBF089597B79F7D97BF90E20C
:1007A00096BF882319F08EB5806402C08EB58F7B0A
:1007B0008EBD87B7806287BF80E090E008957FB7E5
:1007C000F89462B72091FD033091FE034091FF033E
:1007D0005091000406B601FE0FC081B792B7280FF2
:1007E000311D411D511D2F5F3F4F4F4F5F4F290F4F
:1007F000311D411D511D04C0260F311D411D511DCC
:10080000872F99278FBFCA01B9010895EF920F93DF
:100810001F93AE2D99E0899FF0011124E251FB4F07
:1008200040835183628373830483158326833783D4
:10083000A17080858E7F8A2B8260808788E00E94ED
:1008400062011F910F91EF900895AF92BF92CF92E6
:10085000DF92EF92FF920F931F93F82E5A016B01D4
:100860000E94DF03AB01BC01E1E0EE2E96018501A1
:100870008F2D0E9406041F910F91FF90EF90DF9043
:10088000CF90BF90AF900895982F96959695969596
:10089000EDEEF4E0E90FF11D877021E030E002C0D9
:1008A000220F331F8A95E2F78081822399270895CA
:1008B000DF92EF92FF920F931F938FB7F894282F38
:1008C0003327D22E91B782B746B7981711F041FF60
:1008D00002C02FBF6AC08091E4048823E1F10E9426
:1008E000DF03E0905605F0905705009158051091F0
:1008F0005905209111043091120440911304509134
:1009000014046E197F09800B910B6217730784071B
:10091000950720F01092E40471E01EC02E0D3F1DDB
:10092000401F511F8091FD039091FE03A091FF0392
:10093000B0910004281B390B4A0B5B0B273E310595
:100940004105510540F4822F223010F070E005C0BF
:1009500070E082E002C070E086EE682F615000B661
:1009600001FCFDCF82B7681709F46F5F2091FD038A
:100970003091FE034091FF0350910004DA01C90158
:100980000196A11DB11D860F911DA11DB11D8217DC
:100990009307A407B50710F4622F609561BFDFBE0F
:1009A000772319F087E00E9462011F910F91FF9059
:1009B000EF90DF900895AFB7F894BB27E1E0E093A4
:1009C000E4046093560570935705809358059093FF
:1009D000590520931104309312044093130450934B
:1009E0001404AFBF0E9458040895982F96959695C9
:1009F0009695E6E1F4E0E90FF11D877021E030E023
:100A000002C0220F331F8A95E2F780818223992743
:100A100008952F923F924F925F926F927F928F92A2
:100A20009F92AF92BF92CF92DF92EF92FF920F937D
:100A30001F93CF93DF93CDB7DEB760970FB6F894CF
:100A4000DEBF0FBECDBF4C017B01F594E79421E0E2
:100A500030E0C9010E2C02C0880F991F0A94E2F7FA
:100A600098878F8360FF03C00894E11CF11C80917C
:100A7000F6039091F70386179707D1F17093F70368
:100A80006093F6031092F7011092F6013093F9018A
:100A90002093F80122E030E001E010E026C0215070
:100AA0003040B801022E02C0660F771F0A94E2F7A9
:100AB0002F5F3F4FFB01EE0FFF1FEA50FE4F40E05C
:100AC00050E0A6EFB1E00CC08D919C911197880F7A
:100AD000991F8D939D930196819391934F5F5F4FE3
:100AE000461757078CF32F5F3F4FE216F306BCF60D
:100AF000AF80B884AA0CBB1CAA0CBB1C84010A0DD5
:100B00001B1D0C5F1F4F7401A1E0B0E0BE83AD83DD
:100B1000E8EFF1E0FA83E9837DC0A981BA812D90E5
:100B20003C90EF81F885E29D2001E39D500CF29D01
:100B3000500C1124F7012481358146815781B2017F
:100B4000660F771F660F771F680D791DFB01808187
:100B50009181A281B381F70184839583A683B783B2
:100B6000DB012D933D934D935C9313971A8709876F
:100B7000B1E0CB2ED12CE8EFF1E0FC83EB836624CF
:100B800077246A187B082CC0AB81BC81ED91FD9164
:100B9000BC83AB83E40DF51DEE0FFF1FEE0FFF1FAF
:100BA000E80DF91DF88BEF8769857A85660D771D4D
:100BB000DB012D913D914D915C9180819181A281CC
:100BC000B381FB0180839183A283B383AF85B8890E
:100BD0002D933D934D935C9313970894C11CD11CA6
:100BE000E985FA85EA0DFB1DFA87E987C214D3046B
:100BF0005CF22D813E812F5F3F4F3E832D830C5F42
:100C00001F4F89819A8102969A838983A4E0B0E07C
:100C1000EA0EFB1EED81FE812F813885E217F30776
:100C20000CF47BCF60960FB6F894DEBF0FBECDBF3D
:100C3000DF91CF911F910F91FF90EF90DF90CF90B8
:100C4000BF90AF909F908F907F906F905F904F90EC
:100C50003F902F9008958091C805882319F02FE1C7
:100C600070E002C078E021E0622FEFB7F894809145
:100C700038048E7F8093380487B1982F9F718295B6
:100C800086958695837019F080E090E012C0822FDF
:100C90008850863118F081E090E00BC040E050E0D1
:100CA0003327892F99272817390711F441E050E09D
:100CB000CA01982F9170990F809138048178262F5E
:100CC0002F71422F440F440F892B842B80933804BB
:100CD000332727B9783059F58091C6059091C7051B
:100CE00021E08638920718F087E090E01FC0833C2F
:100CF000910518F086E090E019C08136910518F052
:100D000085E090E013C08033910518F084E090E016
:100D10000DC08831910518F083E090E007C00C9772
:100D200018F082E090E002C080E090E0782F7770C9
:100D3000887D872B886D992786B98E2F99278FBF3D
:100D40000895AF92BF92CF92DF92EF92FF920F93EE
:100D50001F93CF93DF93CDB7DEB728970FB6F894E4
:100D6000DEBF0FBECDBF20E070E0E0910001F0914A
:100D7000010132E14DE65CE46FE4809101019E2FB8
:100D800028960FB6F894DEBF0FBECDBFDF91CF918E
:100D90001F910F91FF90EF90DF90CF90BF90AF9099
:100DA00008951F920F920FB60F9211242F933F9325
:100DB0004F935F936F937F938F939F93AF93BF9363
:100DC000EF93FF9344B155B178948FB7F894992776
:100DD00020913804322F3695317021708FBF222335
:100DE00031F5339880915F04813021F0823009F031
:100DF00044C008C0332341F050931E0540931D05A5
:100E000086E012C0332319F40E942B0636C01092DC
:100E10005F048091C805882381F510924A0450939D
:100E200032044093310484E00E94620126C08FB7EF
:100E3000F89499278FBF2FB7F894332786B1582F8E
:100E40005770482F4072987D942B952B8074977B18
:100E5000982B90619F77892F992786B9887D842B5D
:100E6000852B87738061992786B9887D842B852B94
:100E7000877B8069992786B92FBFFF91EF91BF913A
:100E8000AF919F918F917F916F915F914F913F9122
:100E90002F910F900FBE0F901F9018951F920F92D9
:100EA0000FB60F9211248F9383B783BF00B600FC57
:100EB000FDCF8F910F900FBE0F901F9018951F922E
:100EC0000F920FB60F9211240F900FBE0F901F902C
:100ED00018951F920F920FB60F9211240F900FBE0C
:100EE0000F901F9018951F920F920FB60F9211241A
:100EF0000F900FBE0F901F9018951F920F920FB674
:100F00000F9211240F900FBE0F901F9018951F92F3
:100F10000F920FB60F9211240F900FBE0F901F90DB
:100F200018951F920F920FB60F9211240F900FBEBB
:100F30000F901F9018951F920F920FB60F921124C9
:100F40000F900FBE0F901F90189578941F920F92DC
:100F50000FB60F9211240F900FBE0F901F9018958F
:100F600078941F920F920FB60F9211240F900FBE1C
:100F70000F901F90189578941F920F920FB60F92B2
:100F800011242F933F938F939F932FB7F894332778
:100F90008091EB049091EC0401969093EC04809383
:100FA000EB042FBF9F918F913F912F910F900FBE18
:100FB0000F901F9018952F923F924F925F926F92D1
:100FC0007F928F929F92AF92BF92CF92DF92EF92D9
:100FD000FF920F931F93CF93DF93CDB7DEB7C65524
:100FE000D0400FB6F894DEBF0FBECDBF67969FAF5F
:100FF0008EAF679761967FAF6EAF619763965FAF75
:101000004EAF63979A01220F331F26573E4F6596C6
:101010003FAF2EAF659763968EAD9FAD63970D97EB
:1010200008F0D8986396AEADBFAD6397A330B10515
:101030000CF008C2129709F082C16796EEADFFADC1
:101040006797A080B180C280D380E084F18402855C
:101050001385A8019701C601B5010E94D22E67969B
:10106000EEADFFAD67976087718782879387A80190
:101070009701C601B5010E94D32E6796AEADBFADF4
:1010800067976D937D938D939C9313976196EEADC7
:10109000FFAD6197A080B180C280D380E084F184ED
:1010A00002851385A8019701C601B5010E94D22EC1
:1010B0006196EEADFFAD61976087718782879387F8
:1010C000A8019701C601B5010E94D32E6196AEAD6D
:1010D000BFAD61976D937D938D939C9313976796A6
:1010E000EEADFFAD6797A480B580C680D780E4845D
:1010F000F58406851785A8019701C601B5010E94F0
:10110000D22E6796EEADFFAD6797648775878687A9
:101110009787A8019701C601B5010E94D32E679653
:10112000EEADFFAD67976483758386839783619681
:10113000EEADFFAD6197A480B580C680D780E48412
:10114000F58406851785A8019701C601B5010E949F
:10115000D22E6196EEADFFAD619764877587868765
:101160009787A8019701C601B5010E94D32E619609
:10117000EEADFFAD61976483758386839783679631
:10118000AEADBFAD6797AD90BD90CD90DC9013979D
:10119000FD01E480F58006811781A8019701C60151
:1011A000B5010E94D22E6796EEADFFAD67976483BE
:1011B000758386839783A8019701C601B5010E94B4
:1011C000D32E6796AEADBFAD67976D937D938D932C
:1011D0009C9313976196EEADFFAD6197A080B180AF
:1011E000C280D380E480F58006811781A801970131
:1011F000C601B5010E94D22E6196EEADFFAD61979A
:101200006483758386839783A8019701C601B5011E
:101210000E94D32E6196AEADBFAD61976D937D9365
:101220008D939C9313976796EEADFFAD67973896B5
:10123000F093D101E093D0011896B093CD01A09323
:10124000CC013496F093CF01E093CE013C976796A2
:10125000FFAFEEAF67971496B093CB01A093CA018E
:101260001C976196BFAFAEAF6197FD0124853585B0
:10127000468557856796EEADFFAD679760857185AA
:10128000828593850E94D32E1B012C016093BA01A5
:101290007093BB018093BC019093BD016196EEAD4C
:1012A000FFAD6197A084B184C284D3846796EEAD0C
:1012B000FFAD6797E484F58406851785A80197013B
:1012C000C601B5010E94D32E3B014C016093B601CB
:1012D0007093B7018093B8019093B901A801970169
:1012E000C601B5010E94D22E6196EEADFFAD6197A9
:1012F00060877187828793872485358546855785E2
:101300006796EEADFFAD67976085718582859385A1
:101310000E94D22E6796EEADFFAD67976487758702
:101320008687978720863186428653866196EEAD02
:10133000FFAD619764867586868697867DC66396BF
:101340002EAD3FAD63972130310509F073C067962C
:101350008EAD9FAD679704969093CF018093CE0199
:101360006196AEADBFAD619714966196BFAFAEAF5B
:101370006197B093CB01A093CA01FC01D290C290B7
:10138000B290A2906796FFAFEEAF6797E480F580CA
:1013900006811781A8019701C601B5010E94D22ECE
:1013A0006796EEADFFAD67976483758386839783F9
:1013B000A8019701C601B5010E94D32E6796AEAD74
:1013C000BFAD67976D937D938D939C9313976196B3
:1013D000EEADFFAD619792908290729062906196AF
:1013E000FFAFEEAF6197E480F58006811781A80119
:1013F0009701C401B3010E94D32E5B016C0160937D
:10140000BA017093BB018093BC019093BD01A80108
:101410009701C401B3010E94D22E6196EEADFFADDB
:1014200061976483758386839783A082B182C28229
:10143000D38202C66396EEADFFAD6397EF2B09F042
:10144000C9C5FAC501E010E0980162960FAC629739
:1014500002C0220F331F0A94E2F72F963FAF2EAF40
:101460002F973093DD012093DC01C90162E070E029
:101470000E94B0312B967FAF6EAF2B977093DB013C
:101480006093DA01CB0162E070E00E94B0319B0111
:101490007093D9016093D801CB0162E070E00E94A3
:1014A000B0317093D7016093D60163968EAD9FAD36
:1014B000639704970CF477C16596AEADBFAD6597A1
:1014C0008D919C91892B09F06EC122503040309350
:1014D000D5012093D401C901880F991F820F931F52
:1014E00064E070E0880F991F0E9419322C01659604
:1014F000EEADFFAD659791838083892B09F4D89871
:101500005092C9014092C8018091D4019091D501B7
:10151000880F991F880F991F9201280F391F38A72C
:101520002FA33093C7012093C601280F391F3AA774
:1015300029A73093C5012093C401280F391F3CA768
:101540002BA73093C3012093C2011901280E391E25
:101550003092C1012092C001820D931D9EA78DA7DC
:101560009093BF018093BE011093D3010093D201E9
:101570008091D8019091D9019A838983A091D60155
:10158000B091D701BC83AB836090AA017090AB018E
:101590008090AC019090AD01A090AE01B090AF01F1
:1015A000C090B001D090B101E090B201F090B301D1
:1015B0000091B4011091B501E091DC01F091DD01E1
:1015C0002D96FFAFEEAF2D9721E030E038872F83C7
:1015D00083E090E09E838D83A0C0AF81B885EB81CE
:1015E000FC81AE17BF0709F48DC02D962EAD3FAD1F
:1015F0002D97B901882777FD8095982F0E94D52FC8
:101600003B014C01AF81B885BD01882777FD8095EE
:10161000982F0E94D52F2BED3FE049EC50E40E941B
:101620009A30A40193010E943A2F7B018C010E9401
:10163000372F5B016C01C801B7010E94FD307B01AF
:101640008C01F201A192B192C192D1922F01A60117
:1016500095010E94D32E9058AFA1B8A56D937D93AC
:101660008D939D93B8A7AFA3A6019501C801B701BB
:101670000E94D22EE9A5FAA561937193819391936B
:10168000FAA7E9A72D813E81B901882777FD8095CA
:10169000982F0E94D52F2BED3FE049EC50E40E949B
:1016A0009A30A40193010E943A2F7B018C010E9481
:1016B000372F5B016C01C801B7010E94FD303B016F
:1016C0004C01ABA5BCA5AD92BD92CD92DD92BCA75D
:1016D000ABA7A60195010E94D32E9058F10161930A
:1016E0007193819391931F01A6019501C401B301E8
:1016F0000E94D22EADA5BEA56D937D938D939D9333
:10170000BEA7ADA7EF81F8853196F887EF832D81CD
:101710003E812D5F3F4F3E832D838F819885A98128
:10172000BA818A179B070CF458CFEDA5FEA5F0935C
:10173000BF01E093BE013092C1012092C0012BA5F0
:101740003CA53093C3012093C20189A59AA590932B
:10175000C5018093C401AFA1B8A5B093C701A09300
:10176000C6015092C9014092C8016092AA017092CC
:10177000AB018092AC019092AD01A092AE01B0920B
:10178000AF01C092B001D092B101E092B201F092EB
:10179000B3010093B4011093B501EF81F885F09384
:1017A000D301E093D20167962EAD3FAD679730939A
:1017B000D1012093D0018091DA019091DB0129962B
:1017C0009FAF8EAF2997880F991F880F991F280FF9
:1017D000391F23963FAF2EAF23973093CF0120932D
:1017E000CE016196AEADBFAD6197B093CD01A09330
:1017F000CC01A80FB91F2196BFAFAEAF2197B09310
:10180000CB01A093CA011092D3011092D201609033
:10181000B6017090B7018090B8019090B901209006
:10182000BA013090BB014090BC015090BD01679659
:10183000EEADFFAD6797F88BEF873E872D876196FA
:101840002EAD3FAD61973C872B87BA87A9871A8A4F
:10185000198A5AC0AF85B889AD90BD90CD90DC9003
:10186000ED85FE85E080F18002811381A80197015A
:10187000C601B5010E94D32E1B012C01A8019701BE
:10188000C601B5010E94D22EAD85BE856D937D93B4
:101890008D939D93BE87AD87EF85F8892192319214
:1018A00041925192F88BEF87AB85BC85AD90BD908E
:1018B000CD90DC90E985FA85E080F180028113818A
:1018C000A8019701C601B5010E94D32E3B014C012E
:1018D000A8019701C601B5010E94D22EA985BA853B
:1018E0006D937D938D939D93BA87A987EB85FC8536
:1018F0006192719281929192FC87EB8729893A8952
:101900002F5F3F4F3A8B298B89899A892996AEADF3
:10191000BFAD29978A179B070CF49CCF6092B60144
:101920007092B7018092B8019092B9012092BA01E9
:101930003092BB014092BC015092BD012396EEADA6
:10194000FFAD2397F093D101E093D0012091D8010E
:101950003091D90127963FAF2EAF2797C901880F45
:10196000991F880F991FE80FF91FFEAFEDAFF09395
:10197000CF01E093CE012196AEADBFAD2197B093DC
:10198000CD01A093CC01A80FB91FBCAFABAFB093F2
:10199000CB01A093CA011092D3011092D2012396D9
:1019A000EEADFFAD2397FA8FE98FB88FAF8B2196FD
:1019B0002EAD3FAD21973E8B2D8B8DAD9EAD9C8B7B
:1019C0008B8B1C8E1B8E5EC0AF89B88D2D913D9187
:1019D0004D915C91E98DFA8D608171818281938155
:1019E0000E94D32E1B012C01AD89BE89AD90BD9004
:1019F000CD90DC90EB89FC89E080F180028113813D
:101A0000A8019701C601B5010E94D32E3B014C01EC
:101A1000A8019701C601B5010E94D22EAD89BE89E9
:101A20006D937D938D939D93BE8BAD8BEF89F88DD8
:101A30002081318142815381A98DBA8D6D917D9133
:101A40008D919C910E94D22EEB89FC8961937193B8
:101A500081939193FC8BEB8BA98DBA8D2D923D9246
:101A60004D925D92BA8FA98FEF89F88D6192719234
:101A700081929192F88FEF8B2B8D3C8D2F5F3F4F92
:101A80003C8F2B8F8B8D9C8D2796AEADBFAD27974E
:101A90008A179B070CF498CF6092B6017092B70139
:101AA0008092B8019092B9012092BA013092BB01A4
:101AB0004092BC015092BD016396EEADFFAD6397BD
:101AC00034979CF19D01225030403093D5012093F2
:101AD000D4016596AEADBFAD65978D919C91909305
:101AE000C9018093C801220F331F220F331F820FB9
:101AF000931F9093C7018093C601820F931F909309
:101B0000C5018093C401820F931F9093C3018093FA
:101B1000C201820F931F9093C1018093C001820F75
:101B2000931F9093BF018093BE0123960EAD1FAD0E
:101B300023970C5F1F4F1093D1010093D0016DAD1F
:101B40007EAD6C5F7F4F7093CF016093CE01219685
:101B50004EAD5FAD21974C5F5F4F5093CD014093E9
:101B6000CC012BAD3CAD2C5F3F4F3093CB0120938C
:101B7000CA0181E090E09093D3018093D201E0917B
:101B8000D601F091D7012596FFAFEEAF2597809152
:101B9000BE019091BF019AAF89AFA091C001B091F1
:101BA000C101B8AFAFABE091C201F091C301FEAB90
:101BB000EDAB8091C4019091C5019CAB8BABA09122
:101BC000C601B091C701BAABA9ABE091C801F091D1
:101BD000C901F8ABEFA77EA36DA35CA34BA33AA307
:101BE00029A31E8F0D8F21E030E038A32F8F1AC15B
:101BF000AD8DBE8DAD90BD90CD90DC90EBA1FCA1E4
:101C000060807180828093802F8D38A125968EAD63
:101C10009FAD25972817390709F05BC0A4019301F0
:101C2000C601B5010E94D32E23EF34E045E35FE304
:101C30000E949A301B012C01A6019501C401B30139
:101C40000E94D22E23EF34E045E35FE30E949A30F6
:101C5000ABA1BCA16D937D938D939C931397ED8D58
:101C6000FE8D2082318242825382A9A1BAA1ED90D9
:101C7000FD900D911C91EDA1FEA1A080B180C280CC
:101C8000D380A6019501C801B7010E94D22E23EF8F
:101C900034E045E35FE30E949A303B014C01A80128
:101CA0009701C601B5010E94D32E23EF34E045E32E
:101CB0005FEB0E949A30A9A1BAA16D937D938D9399
:101CC0009C931397EDA1FEA1608271828282938220
:101CD0008EC0A4019301C601B5010E94D32EAFA509
:101CE000B8A92D913D914D915D91B8ABAFA70E94E0
:101CF0009A307B018C01E9A9FAA921913191419196
:101D00005191FAABE9ABC601B5010E949A30A80126
:101D100097010E94D32E5B016C01ABA9BCA92D9148
:101D20003D914D915D91BCABABABC401B3010E9441
:101D30009A30A80197010E94D32EED8DFE8D60830D
:101D4000718382839383ABA1BCA1AD92BD92CD92EE
:101D5000DC921397EDA1FEA1E080F1800281138156
:101D6000A9A1BAA1AD90BD90CD90DC90A60195013E
:101D7000C801B7010E94D32EEDA9FEA9219131918E
:101D800041915191FEABEDAB0E949A303B014C0169
:101D9000AFA9B8AD2D913D914D915D91B8AFAFAB6D
:101DA000C801B7010E949A30A40193010E94D32E6A
:101DB0001B012C01E9ADFAAD219131914191519175
:101DC000FAAFE9AFC601B5010E949A30A4019301B0
:101DD0000E94D32EADA1BEA16D937D938D939C9354
:101DE0001397E9A1FAA120823182428253822DA168
:101DF0003EA12C5F3F4F3EA32DA38BA19CA1049637
:101E00009CA38BA3A9A1BAA11496BAA3A9A3EF8DF1
:101E1000F8A13196F8A3EF8F2D8D3E8D2C5F3F4FAB
:101E20003E8F2D8F8F8D98A12796AEADBFAD279792
:101E30008A179B070CF4DCCEE9ADFAADF093BF0135
:101E4000E093BE012FA938AD3093C1012093C001AA
:101E50008DA99EA99093C3018093C201ABA9BCA98F
:101E6000B093C501A093C401E9A9FAA9F093C701F1
:101E7000E093C6012FA538A93093C9012093C8016A
:101E80006092B6017092B7018092B8019092B90148
:101E90002092BA013092BB014092BC015092BD0128
:101EA00089A19AA19093CB018093CA01ABA1BCA157
:101EB000B093CD01A093CC01EDA1FEA1F093CF0191
:101EC000E093CE012D8D3E8D3093D1012093D00132
:101ED0008F8D98A19093D3018093D2016396AEAD7C
:101EE000BFAD639711976396BFAFAEAF6397AD0178
:101EF00061966EAD7FAD619767968EAD9FAD67972A
:101F00000E94DB072F96EEADFFAD2F97F093DD011A
:101F1000E093DC012B962EAD3FAD2B973093DB0188
:101F20002093DA0163968EAD9FAD63970197639618
:101F30009FAF8EAF6397C901880F991F880F991FB4
:101F400061966EAD7FAD6197680F791F63964EAD58
:101F50005FAD63976796AEADBFAD67978A0F9B1F66
:101F60000E94DB072F96EEADFFAD2F97F093DD01BA
:101F7000E093DC01CF0164E070E00E94B031CB015E
:101F8000880F991F860F971F9093D9018093D801CE
:101F9000880F991F880F991F61962EAD3FAD6197ED
:101FA000280F391F61963FAF2EAF61976796AEAD90
:101FB000BFAD6797A80FB91F6796BFAFAEAF679762
:101FC0006596EEADFFAD659734976596FFAFEEAFC2
:101FD000659721C821E030E062960FAC629702C09D
:101FE000220F331F0A94E2F72F963FAF2EAF2F97A1
:101FF0003093DD012093DC01C90162E070E00E94B2
:10200000B0312B967FAF6EAF2B977093DB0160934F
:10201000DA01CB0162E070E00E94B031CB01709335
:10202000D9016093D80162E070E00E94B0317093F2
:10203000D7016093D601B7CBCA5ADF4F0FB6F894D9
:10204000DEBF0FBECDBFDF91CF911F910F91FF90EB
:10205000EF90DF90CF90BF90AF909F908F907F9048
:102060006F905F904F903F902F9008952F923F92E6
:102070004F925F926F927F928F929F92AF92BF9298
:10208000CF92DF92EF92FF920F931F93CF93DF9344
:10209000CDB7DEB7C655D0400FB6F894DEBF0FBE41
:1020A000CDBF2D969FAF8EAF2D972F967FAF6EAF82
:1020B0002F97625070407C8B6B8BCB01880F991FE0
:1020C0009C0122523E4F63963FAF2EAF6397805BD9
:1020D0009E4F65969FAF8EAF65972F964EAD5FADC5
:1020E0002F974130510509F4E8C621E030E02E96E3
:1020F0000FAC2E9702C0220F331F0A94E2F73093E1
:10210000450120934401C90162E070E00E94B031B2
:102110002B967FAF6EAF2B97709343016093420174
:10212000CB0162E070E00E94B03129967FAF6EAFC4
:10213000299770934101609340012D96EEADFFAD5C
:102140002D97F0934B01E0934A01220F331F220F8A
:10215000331F2E0F3F1F2450304067963FAF2EAFE6
:1021600067973093490120934801109247011092DC
:10217000460160904C0170904D0180904E0190900E
:102180004F011F0129011E8A1D8A2EC0D101AD9069
:10219000BD90CD90DC90F201E080F180028113814E
:1021A000A8019701C601B5010E94D32E3B014C0145
:1021B000A8019701C601B5010E94D22ED2016D93EC
:1021C0007D938D939C931397F1016192719281920B
:1021D00091921F012D893E892F5F3F4F3E8B2D8BA2
:1021E0004CEF5FEF440E551E6D897E892B968EADA8
:1021F0009FAD2B97681779074CF260924C01709253
:102200004D0180924E0190924F01880F991F880FC7
:10221000991F2D96AEADBFAD2D97A80FB91F27966C
:10222000BFAFAEAF2797B0934B01A0934A0167961B
:10223000EEADFFAD6797F0934901E093480110922E
:10224000470110924601AF01FD0120E030E017C0C8
:10225000DA016D907D908D909C901397A080B18055
:10226000C280D380AD92BD92CD92DC9213976192E1
:102270007192819291922F5F3F4F44505040299626
:102280006EAD7FAD29972617370714F3F0934B01F6
:10229000E0934A0160924C0170924D0180924E0190
:1022A00090924F0150934901409348013093470168
:1022B000209346012B96AEADBFAD2B97BD0188276D
:1022C00077FD8095982F0E94D52F0E9407315B01E2
:1022D0006C012F96EEADFFAD2F9731972F96FFAF84
:1022E000EEAF2F973D9708F0D8982F962EAD3FADC3
:1022F0002F9712161306ACF0A60195012796AEADE6
:10230000BFAD27976D917D918D919C910E949A30E0
:102310002796EEADFFAD2797608371838283938309
:10232000B3C52F962EAD3FAD2F972130310509F063
:10233000BBC08091500190915101892B61F564E0FF
:1023400070E082E090E00E9419328C01909351017C
:1023500080935001892B09F4D8982EE533E84CE698
:102360005FE3C601B5010E949A30F8016193719351
:1023700081939193F0938B01E0938A0125E13FEEE5
:1023800043EC5EE3C601B5010E949A30F801648314
:1023900075838683978327962EAD3FAD27972C5F55
:1023A0003F4F27963FAF2EAF279730938D01209355
:1023B0008C01209150013091510130938B01209379
:1023C0008A012C5F3F4F3093890120938801D90106
:1023D0007E916E915E914E914B875C876D877E8773
:1023E0002796EEADFFAD2797929082907290629003
:1023F0002796FFAFEEAF2797FD01248035804680FA
:1024000057802796EEADFFAD279724813581468111
:1024100057812F87388B498B5A8BA40193016B8589
:102420007C858D859E850E949A307B018C012F854D
:10243000388949895A89C201B1010E949A309B01A9
:10244000AC01C801B7010E94D32E5B016C016093FF
:1024500078017093790180937A0190937B01A401B4
:102460009301C201B1010E949A307B018C012F853A
:10247000388949895A896B857C858D859E850E941E
:102480009A309B01AC01C801B7010E94D22E279659
:10249000EEADFFAD27976483758386839783A08213
:1024A000B182C282D382F0C4E1E0F0E02E960FAC9C
:1024B0002E9702C0EE0FFF1F0A94E2F7FEAFEDAFBA
:1024C000CF0162E070E00E94B03125967FAF6EAF21
:1024D0002597CB0162E070E00E94B03121967FAF7A
:1024E0006EAF21976596AEADBFAD65978D919C910E
:1024F000892B09F0C6C125968EAD9FAD2597880F13
:10250000991F2596EEADFFAD25978E0F9F1F64E0B6
:1025100070E0880F991F0E94193267969FAF8EAFA7
:1025200067976596AEADBFAD65978D939C93892BEC
:1025300009F4D8986796EEADFFAD6797F0938701E1
:10254000E093860125968EAD9FAD2597880F991F44
:10255000880F991F7F01E80EF91EF0928501E09225
:1025600084018701080F191F1093830100938201D2
:102570009801280F391F38A72FA33093810120938A
:102580008001280F391F3AA729A730937F01209394
:102590007E01280F391F3CA72BA730937D01209384
:1025A0007C014DAD5EADBA01882777FD8095982FEF
:1025B0000E94D52F6FAB78AF89AF9AAF9B01AC016A
:1025C00060E070E080E090E40E943A2F0E940731C2
:1025D0009B01AC01C601B5010E949A306F837887D8
:1025E00089879A87609068017090690180906A017C
:1025F00090906B01209070013090710140907201B9
:1026000050907301A0906C01B0906D01C0906E016C
:10261000D0906F0167966EAD7FAD67977A8F698FA7
:10262000F88EEF8A67961FAF0EAF679723961FAE9F
:102630001EAE2397DCC02396AEADBFAD2397BD0180
:10264000882777FD8095982F0E94D52F5B016C011C
:1026500020E030E040E85EE30E94D32E2BED3FE027
:1026600049E450E40E949A302FA938AD49AD5AADE3
:102670000E943A2F1B012C010E94372F7B018C01F5
:10268000C201B1010E94FD303B014C01E98DFA8D80
:10269000E082F18202831383A80197010E94D32E66
:1026A0009058AF89B88D6D937D938D939C931397BC
:1026B000A8019701C401B3010E94D22E6796EEAD26
:1026C000FFAD679760837183828393830FA118A501
:1026D0000C5F1F4F23962EAD3FAD239721964EAD35
:1026E0005FAD219724173507B1F423EF34E045E3BC
:1026F0005FE36F81788589859A850E949A305B01B6
:102700006C01AFA1B8A56D937D938D939C931397A6
:1027100018A70FA34DC02BED3FE049E450E4C601DC
:10272000B5010E949A302FA938AD49AD5AAD0E942B
:102730003A2F1B012C010E94372F9B01AC016F81A6
:10274000788589859A850E949A305B016C01C20167
:10275000B1010E94FD309B01AC016F8178858985B4
:102760009A850E949A303B014C01EFA1F8A5A08206
:10277000B182C282D38218A70FA3A60195010E943D
:10278000D32E9058A9A5BAA56D937D938D939D9353
:10279000BAA7A9A7A6019501C401B3010E94D22E30
:1027A000EBA5FCA56193719381939193FCA7EBA793
:1027B00023962EAD3FAD23972F5F3F4F23963FAF1C
:1027C0002EAF2397498D5A8D4C5F5F4F5A8F498F9B
:1027D0006F89788D6C5F7F4F788F6F8B67968EAD2A
:1027E0009FAD6797049667969FAF8EAF67972396C6
:1027F000AEADBFAD23972596EEADFFAD2597AE17D5
:10280000BF070CF418CF67962EAD3FAD6797309396
:102810008301209382014F89588D50938501409305
:102820008401698D7A8D70938701609386018BA5F1
:102830009CA590937D0180937C01A9A5BAA5B09336
:102840007F01A0937E01609268017092690180927D
:102850006A0190926B012092700130927101409256
:10286000720150927301EFA1F8A5F0938101E093FA
:102870008001A0926C01B0926D01C0926E01D09265
:102880006F016396AEADBFAD63978D919C91892B1F
:1028900089F464E070E025968EAD9FAD25970E9487
:1028A00019326396EEADFFAD639791838083892BD8
:1028B00009F4D8986596AEADBFAD65970D911C91A2
:1028C00010938701009386012596EEADFFAD259705
:1028D000EE0FFF1FEE0FFF1FFEABEDAB5F01A00E73
:1028E000B11EB0928501A09284016F01CA0CDB1C5D
:1028F000D0928301C0928201CF018C0D9D1D9093D7
:102900008101809380018E0F9F1F90937F018093A0
:102910007E018E0F9F1F90937D0180937C016396B3
:10292000AEADBFAD63970D90BC91A02DBE83AD83BE
:10293000B0939101A09390012796EEADFFAD27973C
:10294000F0938F01E0938E019F012C5F3F4F3093F6
:102950008D0120938C01F0938B01E0938A01CD01CE
:102960004DA95EA9840F951F0497909389018093C8
:1029700088014F01AC01F901B40120E030E01EC034
:102980004080518062807380DA014D925D926D9239
:102990007C921397D4014D905D906D907C90DB01FB
:1029A0004D925D926D927D92BD012F5F3F4F88E009
:1029B00090E0880E991E4450504038962596AEAD52
:1029C000BFAD25972A173B07DCF290928F018092CA
:1029D0008E01F0938D01E0938C012796EEADFFAD53
:1029E0002797F0938B01E0938A012D813E813093EC
:1029F000890120938801609078017090790180901E
:102A00007A0190907B012090740130907501409084
:102A1000760150907701DAA2C9A2F8A3EF8F1E8F3A
:102A20000D8F67963FAF2EAF6797BC8EAB8E1C8223
:102A30001B825BC0AF8DB8A1ED90FD900D911C91F4
:102A40006796EEADFFAD6797A080B180C280D3805E
:102A5000A6019501C801B7010E94D32EAD8DBE8D90
:102A60002D913D914D915D91BE8FAD8F0E949A3019
:102A70001B012C01EB8DFC8D2191319141915191E4
:102A8000FC8FEB8FC801B7010E949A30A20191011F
:102A90000E94D32E3B014C01A9A1BAA12D913D91D9
:102AA0004D915D91BAA3A9A3C601B5010E949A30C8
:102AB000A20191010E94D32EEF8DF8A16193719331
:102AC00081939193F8A3EF8F6796AEADBFAD6797F3
:102AD0006D927D928D929D926796BFAFAEAF6797D4
:102AE000EB81FC813196FC83EB832B813C81259625
:102AF0004EAD5FAD2597241735070CF49BCF69A128
:102B00007AA1709383016093820160927801709240
:102B1000790180927A0190927B018B8D9C8D9093AC
:102B20008501809384012092740130927501409256
:102B30007601509277016796AEADBFAD6797B093BF
:102B40008901A0938801EF8DF8A1F0938B01E093A8
:102B50008A012D8D3E8D30938701209386014B890C
:102B60005C896D817E8127968EAD9FAD27970E94EF
:102B7000DB074B895C89423051056CF0BA0127961E
:102B80008EAD9FAD27970E9409056B897C898D8149
:102B90009E810E94090527966EAD7FAD27977093A1
:102BA0008B0160938A0180919001909191019CAF7B
:102BB0008BAF9093890180938801A0917C01B091A3
:102BC0007D01BCABABABE0917E01F0917F01FAAB34
:102BD000E9AB2091740130917501409176015091DB
:102BE00077012DA73EA74FA758AB60907801709052
:102BF000790180907A0190907B0100918001109181
:102C000081019EA38DA37CA36BA31A821982A7C006
:102C1000ABA1BCA1AD90BD90CD90DC90EDA1FEA18B
:102C2000208031804280538098012C5F3F4F619615
:102C30003FAF2EAF619749815A8121966EAD7FAD2E
:102C400021974617570789F5D801ED90FD900D9112
:102C50001C91A2019101C601B5010E94D32E9B01D6
:102C6000AC01C801B7010E949A303B014C01A6019A
:102C70009501C201B1010E94D22E9B01AC01C80195
:102C8000B7010E949A30EDA1FEA160837183828317
:102C9000938361960EAD1FAD6197ABA1BCA16D9200
:102CA0007D928D929C92139748C0A2019101C6011A
:102CB000B5010E94D32EF8012081318142815381D8
:102CC0000E949A306DA77EA78FA798AB61960EAD34
:102CD0001FAD6197A9A9BAA92D913D914D915D9123
:102CE000BAABA9ABC601B5010E949A302DA53EA58D
:102CF0004FA558A90E94D32E3B014C01EBA9FCA97A
:102D00002191319141915191FCABEBABC201B101E9
:102D10000E949A302DA53EA54FA558A90E94D32EFA
:102D2000ABA1BCA16D937D938D939C931397EDA163
:102D3000FEA1608271828282938229813A812F5F13
:102D40003F4F3A8329834DA15EA14C5F5F4F5EA345
:102D50004DA36BA17CA16C5F7F4F7CA36BA389818A
:102D60009A812596AEADBFAD25978A179B070CF4C7
:102D70004FCFEBA9FCA9F0937D01E0937C0129A939
:102D80003AA930937F0120937E014DA55EA56FA5E2
:102D900078A9409374015093750160937601709304
:102DA0007701609278017092790180927A01909215
:102DB0007B0110938101009380018DAD9EAD880F42
:102DC000991F880F991F27966EAD7FAD2797860FA5
:102DD000971FAC014850504050938F0140938E0193
:102DE000049790938D0180938C019B01ADA9BEA99E
:102DF0002A0F3B1F2450304030938B0120938A01CF
:102E0000EBADFCADF0938901E09388016F01BC014B
:102E10008901FA0120E030E020C0D8018D909D901A
:102E2000AD90BC9080829182A282B382D6018D90B7
:102E30009D90AD90BD906D01B7FAB094B7F8B09485
:102E4000DB018D929D92AD92BC9213972F5F3F4F05
:102E50006850704004501040389725964EAD5FADD5
:102E6000259724173507CCF2D0928901C0928801AA
:102E700070938D0160938C0110938B0100938A01F4
:102E8000F0938F01E0938E016B897C8961507040D3
:102E90007C8B6B8B65968EAD9FAD65970297659623
:102EA0009FAF8EAF65976396AEADBFAD6397129738
:102EB0006396BFAFAEAF639710C92D966EAD7FAD71
:102EC0002D976C5F7F4F7093490160934801DB0140
:102ED0009E908E907E906E902D96BFAFAEAF2D9748
:102EE000FD01E480F58006811781A8019701C401E6
:102EF000B3010E94D32E5B016C0160934C0170936F
:102F00004D0180934E0190934F01A8019701C40198
:102F1000B3010E94D22E2D96EEADFFAD2D976483A6
:102F2000758386839783A082B182C282D382CA5A74
:102F3000DF4F0FB6F894DEBF0FBECDBFDF91CF914C
:102F40001F910F91FF90EF90DF90CF90BF90AF90C7
:102F50009F908F907F906F905F904F903F902F90B9
:102F600008950F931F93DC01ED91FC9111978281DD
:102F700093818D939C9300811181CF010E94DB325C
:102F8000C8011F910F9108951F920F920FB60F92D3
:102F900011242F933F934F935F936F937F938F935E
:102FA0009F93AF93BF93EF93FF9383B783BF00B615
:102FB00000FCFDCF81B799270196AA27BB27209156
:102FC000FD033091FE034091FF0350910004280F50
:102FD000391F4A1F5B1F2093FD033093FE0340936C
:102FE000FF035093000478940E945804FF91EF91DE
:102FF000BF91AF919F918F917F916F915F914F9111
:103000003F912F910F900FBE0F901F9018951F9317
:10301000CF93DF9380912001882319F081E090E025
:1030200053C08FB7F894282F3327122F8091230194
:10303000882349F581E080932301109242042FBF39
:103040008FB7F8949927379A8FBF8FB7F894C82F06
:10305000DD279C2F80910301813099F48091230119
:10306000813021F485E00E94620109C0823049F478
:10307000809142048093030183E080932301CFBFBA
:1030800021C09FBF1FC080914204882311F42FBF2D
:1030900019C080E00E94F504882319F085E090E0D3
:1030A00007C08091160481608093160480E090E050
:1030B0001FBF282F882319F481E080932001822FDD
:1030C000992702C020E0F8CFDF91CF911F9108959A
:1030D000AF92BF92CF92DF92EF92FF920F931F9326
:1030E000CF93DF935B016C01C0E0D0E0EEEEF4E043
:1030F000608561FFCDC02081318142815381E480B0
:10310000F58006811781D601C501821B930BA40BA4
:10311000B50B8E159F05A007B10708F4B9C060FF75
:1031200003C06D7F608708C02E0D3F1D401F511FDB
:103130002083318342835383C23009F448C0C330B3
:1031400018F4CC2341F0AAC0C33009F468C0C430DD
:1031500009F0A4C07EC09FB7F89420911D012223DE
:1031600019F421E030E00FC080910201813019F0A4
:1031700020E030E008C040E050E02150223010F460
:1031800041E050E09A01892F99278FBF222309F44B
:1031900085C08FB7F894C82FDD279C2F809102013E
:1031A000813099F480911D01813021F480E00E94EA
:1031B000620109C0823049F4809168058093020160
:1031C00083E080931D01CFBF69C09FBF67C08FB7E9
:1031D000F894C82FDD2780911D01882389F491E0A0
:1031E00090931D0110926805CFBF80911E01882326
:1031F00021F481E00E94620151C090931F014EC0F2
:10320000809168058823F9F280E00E9444048823B5
:10321000D1F68091ED0481608093ED04D4CF2FB777
:10322000F8943327809164008260809364002FBFFC
:103230002FB7F8943327809165008D7F80936500C8
:103240002FBF41E050E060E070E084E00E94250480
:1032500025C02FB7F8943327809164008260809353
:1032600064002FBF2FB7F8943327809165008260E8
:10327000809365002FBF0E94DF03AB01BC01EE24E9
:1032800008EE13E020E030E082E00E94060406C071
:1032900021963996C530D10509F02ACF88E00E94E1
:1032A0006201DF91CF911F910F91FF90EF90DF901E
:1032B000CF90BF90AF9008950F931F93182F0FB723
:1032C000F89461E080E00E94D900882371F51093A2
:1032D0000401809107018823A9F58091290182309A
:1032E00089F58FE00CC00E9410018091290188238C
:1032F00049F481E08093290110923B0481E10E940E
:1033000062012AC0809152048F3F31F5E09106019D
:10331000EE2311F11CC01092050104C0FF27EE5AE4
:10332000FB4F10821092060117C081E090E002C0AE
:10333000880F991F1A95E2F720912801282B2093D6
:1033400028010AC0809129018823E1F6CCCF809121
:1033500005018F3F19F7DFCF802F99278FBF80E0BE
:1033600090E01F910F9108951F9383E00E94250123
:103370009927182F882319F083E00E945C19812F68
:1033800099271F910895EF92FF920F931F93CF9368
:10339000DF93182F7B01042F8FB7F894C82FDD27F8
:1033A00060E080E00E94F300882321F0CFBF80E03E
:1033B00090E014C0CFBF1064812F992790935C04D4
:1033C00080935B040E948901182F402F5527B70175
:1033D00080E090E00E940302812F9927DF91CF9136
:1033E0001F910F91FF90EF900895C0986091F8039E
:1033F0007091F90341E08FE30E94C319089582E0C0
:1034000090E090932F0480932E0481E080933F04FA
:1034100020E030E080910401843011F421E030E0BC
:10342000232B29F484E00E942501882319F40E94AB
:10343000F519089584E00E945C1908951F920F9277
:103440000FB60F9211242F933F934F935F936F9377
:103450007F938F939F93AF93BF93EF93FF9380914D
:103460002E0490912F04019749F482E090E090930C
:103470002F0480932E040E94FF1905C080913A0406
:103480008F5F80933A04FF91EF91BF91AF919F912D
:103490008F917F916F915F914F913F912F910F90FD
:1034A0000FBE0F901F9018951F93809128018823BD
:1034B00009F04BC0109104011F3F09F046C060E0C5
:1034C0000E94F300882309F440C081E080936A05DC
:1034D000809117048823E1F110926A0585E090E05D
:1034E00045C0923069F5C09A8091050120E030E036
:1034F0008F3F11F421E030E0232BE9F41093070112
:103500008F3F19F42FEF30E00DC0282F3327F9013A
:10351000EE5AFB4F8081809305018F3F11F4109389
:103520000601108320933B0481E08093290181E10F
:103530000E94620105C0109307011092290111C079
:1035400080912901882369F00FC081E090E00EC0CE
:103550008091070190912901882319F2923021F07E
:10356000EFCF80E00E94040180E090E01F91089579
:103570001F93CF93DF939FB7F894C92FDD271C2F9C
:1035800090910401981721F0CFBF81E090E03AC0FC
:103590008FEF80930401309128013323F1F48FB72A
:1035A000F894992710925A058FBF0E94541ACFBFE2
:1035B00011C02093040181E090E002C0880F991FA0
:1035C0004A95E2F780953823309328018FE00E94D6
:1035D00062011FBF80E090E015C080E065E0E32F4E
:1035E000FF270E949031292F492F5527CF01042E04
:1035F00002C0959587950A94E2F780FDDACF822F75
:103600008F5FEFCFDF91CF911F9108951F93CF93DD
:10361000DF938FB7F894C82FDD271C2F80912E04DD
:1036200090912F04892B29F484E00E94B81ACFBF0F
:103630001EC010923F0480913A04882311F0B7997C
:1036400004C00E9908C0882319F0815080933A0471
:103650000E94FF190BC081E090E090932F048093AB
:103660002E0410923A0484E00E94B81A1FBFDF9122
:10367000CF911F9108950E942B02C09AC09888E0B4
:103680000E94410288E00E944102C09A84E00E94A8
:10369000B81A0E94061B0895FF920F931F93CF93B1
:1036A000DF93F82E8B018FB7F894C82FDD2760E0E9
:1036B00080E00E94F300882321F0CFBF80E090E0FB
:1036C0000CC0CFBF8F2D0E948901812F99270E94A6
:1036D0008901802F0E9489019927DF91CF911F9145
:1036E0000F91FF9008951F931FB7F89480913904AC
:1036F000882319F460E070E009C060E08091CE0595
:10370000882309F461E081E06827772780914304EA
:10371000882319F480E090E00AC090E080915F0572
:10372000882309F491E081E09827892F9927762F43
:103730006627770F770F770FF4E0880F991FFA95B8
:10374000E1F7826E9262682B792B81E10E944C1B1B
:10375000812F99278FBF1F9108958FB7F8949927CC
:10376000609169058FBF85E0689FB0011124625D9B
:103770007E4F706488E10E944C1B0895EF92FF9287
:103780001F93CF93DF93E0904404F0904504F7013A
:1037900082A59927182F882309F41FE1C0988091EA
:1037A0003704811749F0612F77276F717070606E51
:1037B000706885E10E944C1B10933704F70110815B
:1037C0008FB7F894C82FDD2760E080E00E94F300F7
:1037D000882311F0CFBF12C0CFBF8EE390E090934B
:1037E0005C0480935B048EE30E9489011150412F99
:1037F000552760E070E0C7010E940302DF91CF917E
:103800001F91FF90EF900895CF92DF92EF92FF9279
:103810000F931F93CF93DF938C01F62E6A01E22E54
:103820008FB7F894C82FDD2760E080E00E94F30096
:10383000882321F0CFBF80E090E01EC0CFBF0F0DE6
:10384000111D802F80680E948901F82E169507951A
:10385000802F807C0E9489010E2D0AC0EE2DFF274B
:10386000E01BF109EC0DFD1D80810E9489010150D2
:103870000023A1F78F2D9927DF91CF911F910F91F1
:10388000FF90EF90DF90CF900895CF93DF93CDB767
:10389000DEB72C970FB6F894DEBF0FBECDBF8FB743
:1038A000F894282FAE014F5F5F4FDA01E0E6F5E0B4
:1038B00088E001900D928150E1F780914004909151
:1038C00041048987892F99278A878091570490918D
:1038D00058048B87892F99278C872FBF2CE060E0B5
:1038E00080E691E00E94041C2C960FB6F894DEBF8F
:1038F0000FBECDBFDF91CF9108950F931F93CF934C
:10390000DF93EC010FB7F89411270E949500FC019A
:103910008FE380830FBF1092CC051092CB0561E03E
:1039200082E00E94D900882319F085E090E072C0FF
:1039300080916B058F5F80936B0581508B838FB770
:10394000F894082F112762E081E00E94F300882399
:1039500029F40FBF0E94240281E05BC08FB7F89466
:10396000992724E020935B058FBFD093E304C09395
:10397000E2040FBFFE013196818129819927982F9A
:1039800088273327822B932B80729C7C8983892FF5
:10399000992781832981982F882733272164822BB7
:1039A000932B8983892F992781831CA618A619A692
:1039B00019AA18AA1FA680E88EA761E060935E0589
:1039C0004091E2045091E3048FB7F894282F3327F5
:1039D00080912A0190912B018830910511F0019777
:1039E00011F02FBF15C082E090E090932B018093DF
:1039F0002A016093090650934504409344041092B1
:103A0000FC032FBF0E94B419882311F40E94BE1B2F
:103A100080E09927DF91CF911F910F910895CF9367
:103A2000DF93DA01422F2D3118F082E090E05EC082
:103A3000ED018B876E83872F99278F832FB7F8949B
:103A4000332780914004909141042FBFFD0184836E
:103A5000892F992785832FB7F89433278091080100
:103A6000909109012FBF8887892F992789873196DF
:103A7000818129819927982F8827332720643868E6
:103A8000822B932B8983892F99278183435F4C93C2
:103A90004D5080910B01882359F010920B01642F37
:103AA000CD010E947D1C9927282F8823A9F417C0D7
:103AB000842F99279093610480936004B0932F0121
:103AC000A0932E0183E10E94620180910B01882363
:103AD00049F489E090E00AC08FEF80930B01822FB8
:103AE000992704C010924B0480E090E0DF91CF91C1
:103AF0000895CF93DF93582FFB01823018F081E0B7
:103B000090E033C0C82FDD27CC0FDD1FC951DB4F3C
:103B100088819981892B19F085E090E026C079830E
:103B20006883435F40834D5080910E01823018F4CA
:103B300080E090E01AC0838567817727762F66271B
:103B400026813327622B732B50930E01242FAF0154
:103B50000E940F1D9927282F882329F082E0809347
:103B60000E0119821882822F9927DF91CF91089533
:103B7000FB018683892F9927878387E0838780E0ED
:103B80000E94791D992708951F938F51954029F51B
:103B900010911701113009F51092170180E594E09A
:103BA0000E94B1178093E205892F99278093E10540
:103BB00080911A0190911B018093E405892F992728
:103BC0008093E30544E065ED75E08FEF9FEF0E9481
:103BD000B81D882311F4109316011F9108951F93A7
:103BE000182F81E090E090932B0180932A0110928E
:103BF00017040E94541A8FB7F89499271093240140
:103C00008FBF8BE00E9462011F9108950F931F9355
:103C10000FB7F894112710922B0110922A0187B741
:103C20008F7E87BF87B78F7D87BF83E00E94B81ADA
:103C3000C09A0FBF0FB7F894112710922F0410925B
:103C40002E040E942B02C09A89B78F7B89BF0FBFB9
:103C500080E090E01F910F9108951F93CF93DF9321
:103C6000EC0185E0C53DD80709F064C0109116014C
:103C7000113009F05FC010921601809150049091AC
:103C80005104892B09F038C009C0109316018091A6
:103C9000500490915104892B09F04CC062E081E0FE
:103CA0000E94F300882379F08FB7F894992723E0D6
:103CB00020935B058FBF0E94061E0E9437028AE098
:103CC0000E94620137C060E081E00E94F300882317
:103CD00089F564E081E00E94F300882341F08FB70A
:103CE000F894992723E020935B058FBF23C063E0FE
:103CF00081E00E94F3001EC080E594E00E94B117AD
:103D00008093E205892F99278093E10580911A011C
:103D100090911B018093E405892F99278093E305F7
:103D200044E0BE018FEF9FEF0E94B81D882309F485
:103D3000ACCFADCFDF91CF911F910895FF920F933C
:103D40001F93CF93DF93082FEB01F42EE82FFF276B
:103D5000EE0FFF1FE951FB4F1182108280910E017F
:103D60009927019662E070E00E94B031682F80933D
:103D70000E0110E0462F5527FA01EE0FFF1FE95103
:103D8000FB4FA081B181109799F0E62FE695E6955B
:103D9000E695FF27E653FA4F808199279A0127700D
:103DA000307002C0959587952A95E2F780FF0DC087
:103DB000CA01019662E070E00E94B031682F1F5F77
:103DC0001230C1F610930E0119C060930E016230DB
:103DD000A8F42C912D503327FD0167817727762F8A
:103DE000662786819927682B792BAD0183850E94F0
:103DF0000F1D882319F085E10E946201002319F04C
:103E0000013051F405C06F2DCE010E942D1E04C05B
:103E10006F2DCE010E94C41DDF91CF911F910F9194
:103E2000FF9008959B0180910E01823068F4E82F85
:103E3000FF27EE0FFF1FE951FB4F60817181621771
:103E4000730711F40E949E1E0895CF92DF92EF92A5
:103E5000FF920F931F93CFB6F894DD240E946B025C
:103E6000DC01CB0166E470E00E949C316BE0E62E41
:103E7000F12CE80EF91EF092D205E092D1050E94D5
:103E8000EB0200271127A80197010E94A803CFBECB
:103E90001F910F91FF90EF90DF90CF9008951F93A7
:103EA000CF93DF938FB7F894C82FDD271C2F809115
:103EB0002A0190912B010897C9F489E00E944102E0
:103EC00083E00E94B81AC09A81E090E090932B01A1
:103ED00080932A018FB7F894992723E02093240137
:103EE0008FBF8BE00E946201CFBF30C0C09880912D
:103EF0000906882311F085E001C084E00E94410298
:103F000083FD09C080E00E94410283FF04C085E078
:103F100090E020E003C083E090E021E090932B014B
:103F200080932A01C09A1FBF222341F01092FC0304
:103F300083E00E94B81A0E94251F08C00E94EB026D
:103F400020E431E040E050E00E94A803DF91CF91EF
:103F50001F91089578941F920F920FB60F9211241B
:103F60001F932F933F934F935F936F937F938F9301
:103F70009F93AF93BF93EF93FF9387B78F7E87BFD6
:103F800078941FB7F89480914C0490914D04A091BF
:103F90004E04B0914F040097A105B10509F051C03E
:103FA00080912A0190912B018530910561F1863035
:103FB000910530F48330910549F0049781F51AC0DA
:103FC00087309105F1F0089751F514C0869B0FC01A
:103FD00084E090E090932B0180932A010E94EB02F1
:103FE00027E030E040E050E00E94A80318C00E94A3
:103FF000251F15C00E94B419882389F40E944F1F01
:104000000EC080E00AC089E00E94410281E00E9467
:10401000CC0383E00E94B81A87E00E94EF1D8091D4
:10402000250190912601019771F482E090E0909330
:10403000260180932501DE98DE9A80E00E945C19BB
:1040400002C00E940803812F99278FBFFF91EF9133
:10405000BF91AF919F918F917F916F915F914F91A0
:104060003F912F911F910F900FBE0F901F901895A9
:10407000EF92FF920F931F93CF93DF938B01809169
:104080005B0490915C0486FF40C18F7B8F3309F005
:104090008EC1C091F803D091F90358815093300438
:1040A00080912E0490912F048530910509F443C02E
:1040B0008630910509F48AC0029709F01FC185E096
:1040C00090E090932F0480932E0440911504852F47
:1040D00099270196242F3327281739074CF1B799D0
:1040E00006C00E9904C0451B4150409315044091F1
:1040F00030044A32E8F44423A1F0BE016F5F7F4FE1
:10410000483018F047E050E007C086E090E0909318
:104110002F0480932E04552780E090E00E94030234
:1041200046C110923F04C09A84E00E94B81AE3C0CE
:104130000E943B1B3CC186E090E090932F0480934B
:104140002E0480914304882309F439C080915F05CF
:104150008823A9F5898185FF32C08F814E812FB7D1
:10416000F894332760915704709158042FBF992712
:10417000982F88275527842B952B8617970759F05A
:104180008F812E819927982F88273327822B932B75
:104190008F5F9F4FA1F489818770813081F4C09A2D
:1041A000C0988AE00E944102C09AC09840913004B1
:1041B00047502896BE018FE30E94C319F8C0409172
:1041C0003004475055272896BE01A6CFC09A80914B
:1041D0003A04882339F484E00E94B81A80913A04A2
:1041E000882311F0B7990AC00E9B08C09091C405AE
:1041F000992321F0809130048B3038F48091F803BA
:104200009091F9030E945C023DC0913001F5E0916C
:10421000C905FF27EE0FFF1FEE0FFF1FE059FA4FF2
:104220002081318142815381E091F803F091F903BB
:1042300021ABBB27A52F942F832F80ABCA01AA27C0
:10424000BB2787A7252F33274427552726A78091EB
:10425000C9059927019668E070E00E94B03180930B
:10426000C9058091C40581508093C405882351F00D
:104270008091F8039091F9030E945C021092C905A5
:104280001092C40580913004FE01E80FF11D808179
:1042900087FF31C0012B79F169816770E091F803E4
:1042A000F091F903623019F5A0914404B0914504EE
:1042B000109709F180912A0190912B010797D9F469
:1042C000ED019B8183819817B1F487B78F7E87BFFB
:1042D000908181E08CA7E90FF11D8291319688A72A
:1042E00080818F7789A780E00E94EF1D04C0613034
:1042F00011F482E12AC00E94061B59C010923F04AB
:10430000C09A84E00E94B81A52C08E3309F04FC0A0
:10431000C09A80912A0190912B010897C9F4C09806
:1043200089E00E944102C09A83E00E94B81A81E0AD
:1043300090E090932B0180932A018FB7F8949927EE
:1043400023E0209324018FBF8BE00E9462012FC0E5
:1043500080910906882349F484E090E090932B0132
:1043600080932A010E944F1F22C083E00E94B81A46
:1043700083E090E090932B0180932A010E946B02CE
:10438000DC01CB0166E371E00E949C317BE0E72E0B
:10439000F12CE80EF91EF0920E04E0920D040E943A
:1043A000EB0200271127A80197010E94A803DF91C3
:1043B000CF911F910F91FF90EF9008951F920F9250
:1043C0000FB60F9211242F933F934F935F936F93E8
:1043D0007F938F939F93AF93BF93EF93FF932FB1EF
:1043E000E0911B05F0911C05309739F08091E504B0
:1043F0009091E604E80FF91F20838091E5049091E5
:10440000E60401969093E6048093E50480E00E9420
:104410000A014091FA035091FB038091E5049091C9
:10442000E6048417950718F40E9495011CC060915A
:104430001B0570911C058091CF059091D0051092BD
:104440001C0510921B051092D0051092CF051092FA
:10445000FB031092FA031092E6041092E5042FB1C8
:1044600020E00E943820FF91EF91BF91AF919F9182
:104470008F917F916F915F914F913F912F910F900D
:104480000FBE0F901F9018952F923F924F925F9200
:104490006F927F928F929F92AF92BF92CF92DF9254
:1044A000EF92FF920F931F93CF93DF93CDB7DEB7B9
:1044B000A8970FB6F894DEBF0FBECDBFE82FFF2739
:1044C000E631F10510F00C94AC29EA5BFF4FEE0FDA
:1044D000FF1F0590F491E02D09948091CA0588236F
:1044E00011F40C94AC2910E001E0E2C62FB7F89467
:1044F0003327809168058093020183E080931D013A
:104500002FBF109102018FB7F894282F3327922FD5
:1045100080910301882359F480912301833039F479
:104520002FBF80912101882309F016C702C09FBFC9
:1045300013C782E080935F041092C8050E942B0687
:1045400081E0809321011093360406C70E9407186A
:1045500003C780912001813009F0FEC6A898A09879
:1045600083E024C48FB7F894C82E80912301833050
:1045700009F041C0809103018823E9F58091160478
:10458000882309F0D1C6C9C6ED2DE695E695E695D6
:10459000FF274D2D5527EA5EFB4F9A01277030709B
:1045A00081E090E002C0880F991F2A95E2F780957C
:1045B0002081282320830093220112C00F5F1F4F08
:1045C0000130110511F400E010E0D02E802F0E9480
:1045D000F5048823C9F60E151F0581F74FEF50E04B
:1045E000409342048FEF8093030181E08093230185
:1045F00085E00E946201CFBE1092200180911F01D0
:10460000813011F40E9407188FB7F89499271092FF
:104610001F0110921E0190C310922101A09031043D
:10462000B0903204909036048FB7F894C82E8091E1
:104630001D01833009F041C0809102018915E9F51F
:104640008091ED04882309F07EC674C6ED2DE695B1
:10465000E695E695FF274D2D5527E351FB4F9A012F
:104660002770307081E090E002C0880F991F2A9572
:10467000E2F7809520812823208300931C0112C03B
:104680000F5F1F4F0130110511F400E010E0D02E34
:10469000802F0E9444048823C9F60E151F0581F758
:1046A0004FEF50E0409368058FEF8093020181E067
:1046B00080931D0180E00E946201CFBE992009F025
:1046C0004BC680911601882309F046C6E090180178
:1046D000F09019018701000F111F000F111F0E59D3
:1046E0001B4FB501882777FD8095982F0E94D52F05
:1046F000B7FE06C020E030E040E857E40E94D32E29
:10470000F8016083718382839383C701019690933C
:104710001901809318018032910509F01DC610928D
:10472000190110921801109255051092540510921B
:10473000100410920F04909335018093340180E1AE
:1047400090E090933301809332018091E601909143
:10475000E701892B69F464E070E080E290E00E9458
:1047600019329093E7018093E601892B09F4D898D8
:104770008091E6019091E70190933D0180933C0187
:104780004091340150913501440F551F440F551F7E
:1047900062E674E00E943E3365E070E080913C0187
:1047A00090913D010E94361082E090E0909331019B
:1047B00080933001109239011092380180903C01B1
:1047C00090903D010091320110913301B2E06B2EC7
:1047D000712CCC24DD24A4E04A2E512CB301660FA9
:1047E000771F660F771F92010C2C02C0220F331F18
:1047F0000A94E2F72E593B4FA801440F551F440F6E
:10480000551F480D591DEE24FF24AA24BB24A61AC7
:10481000B70A11C01501220E331EFA018191919140
:10482000A191B191AF01F10180839183A283B38300
:104830000894E11CF11C260F371FE016F10654F313
:10484000C901861B970B15950795660C771C089474
:10485000C11CD11CF5E0CF16D10409F0BFCFD09216
:104860003901C09238017092310160923001F092AA
:104870003701E092360150933B0140933A01109387
:1048800033010093320190933F0180933E01F40184
:1048900080819181A281B3818093620490936304AB
:1048A000A0936404B0936504809134019091350124
:1048B00062E070E00E94B0319B01220F331F220F93
:1048C000331F2E593B4F84819581A681B781F90111
:1048D00080839183A283B383109251041092500479
:1048E000109234041092330400E010E0F801EE0F4F
:1048F000FF1FEE0FFF1FEE59FB4F60817181828118
:1049000093810E94A22F672B09F459C00031110531
:104910008CF421E030E002C0220F331F0A95E2F749
:104920008091540590915505822B932B90935505BA
:1049300080935405E0913304F0913404CF01409703
:104940008031910588F421E030E002C0220F331F4E
:104950008A95E2F780910F0490911004822B932B9B
:104960009093100480930F04EE0FFF1FEE0FFF1FB4
:10497000EE59FB4F60817181828193810E94A22F49
:104980007B018C0184E090E00E943532DC011196BD
:10499000FC92EE92FC0113821282E0915004F0919D
:1049A0005104309731F4909351048093500407C020
:1049B000FC01828193810097D9F7B383A283009190
:1049C0003304109134040F5F1F4F1093340400938D
:1049D0003304003211050CF489CF61E081E00E94BC
:1049E000D9008823E1F48FB7F894282F33278091DA
:1049F000250190912601892B09F0A8C181E090E062
:104A000090932601809325012FBFDD9A0E94EB022F
:104A100024E130E040E050E00E94A8039DC462E041
:104A200081E00E94F300882309F096C461E081E0F0
:104A30000E94F30091C42FB7F89433278091420469
:104A40008093030183E0809323012FBF80910301B2
:104A5000882309F081C4A09AA89A4AE050E060E057
:104A600070E00E94250478C410925F0475C48091A0
:104A70003504882361F520916C0530916D054091D6
:104A80006E0550916F05EFB7F894FF2760915605BA
:104A9000709157058091580590915905E090110447
:104AA000F090120400911304109114046E0D7F1DF8
:104AB000801F911FEFBF20936C0530936D054093CD
:104AC0006E0550936F05109235040E94DB040E941E
:104AD000DF0343C00E94DF035B016C018FB7F894D2
:104AE00099271092E4048FBF0FEFE02E0FEFF02E06
:104AF0000FEF002F0FE7102F60E0EEEEF4E080855F
:104B000081FF1CC080819181A281B381A6019501A2
:104B1000281B390B4A0B5B0BDA01C9012481358153
:104B200046815781281B390B4A0B5B0B2E153F051D
:104B3000400751071CF479018A0161E0399635E09C
:104B4000EB31F307E1F6662309F406C41E141F04D3
:104B5000100611062CF0C601B5010E946818FCC3AE
:104B6000E0926C05F0926D0500936E0510936F0551
:104B700081E080933504A8019701C601B5010E9428
:104B8000DB04EAC30FB7F894112781E00E94CC033D
:104B900011E0E12EF12CF0922B01E0922A0110920B
:104BA0002C0110921704109237040FBF0FB7F8941E
:104BB00011270E942B02F0922F04E0922E041092F3
:104BC0003F0489B78F7B89BF80E488BF8AB7806242
:104BD0008ABF8AB78F7E8ABF89B7806489BF0FBFBB
:104BE0008FB7F894082F1127809125019091260105
:104BF000049719F483E00E9441020FBF0FB7F894A5
:104C00001127C09A80E00E94B81A0FBF8FB7F8949E
:104C1000992722E020935B058FBF20911A013091E4
:104C20001B012F5F3F4F30931B0120931A0180918E
:104C300054059091550580932C05892F99278093D1
:104C40002B0580910F049091100480932E05892FDD
:104C5000992780932D0520933005232F3327209308
:104C60002F058FEF809325058093260589E080939B
:104C70002A0546E06FE175E081E00E94791D8823F6
:104C800051F481E08093170106C08FB7F8949927FB
:104C900010925B058FBF0E94C3035EC38FB7F89469
:104CA0009927F09024018FBF63E081E00E94F30018
:104CB000882341F00E94061E0E9437028AE00E946B
:104CC000620107C08FB7F894992722E020935B0513
:104CD0008FBF0091E2041091E3040E9424028091AE
:104CE000CB059091CC05892B09F036C38FEF8093CB
:104CF0000B014F2DB801D2C28FB7F894282F33275C
:104D0000122F8091D305882309F581E08093D30584
:104D10008091250190912601049721F481E00E9461
:104D20005C1903C08DE00E9462011FBF15C38FB7DD
:104D3000F89499271092D3058FBF0EC38FB7F894BC
:104D4000282F332780912701882311F02FBF04C318
:104D50002FBF80B39927E6E096958795EA95E1F70E
:104D6000182F11709091590480915A048917D9F025
:104D70001917C9F484E090E09093260180932501EF
:104D80008FB7F894992721E0209327018FBF60E027
:104D900070E08DE10E944C1B0E94451CC09AC09897
:104DA00089E00E94620110935A048EE00E94620121
:104DB000D3C28FB7F8949927109104018FBF123096
:104DC00009F465C0133030F4112359F0113009F0A3
:104DD000C3C248C0133009F474C0143009F0BCC217
:104DE000A0C0C0988FB7F894082F11278091250193
:104DF00090912601029709F0B9C083E090E090936A
:104E000026018093250168E170E08DE10E944C1B32
:104E100081E0809359041092270180B3992776E0AE
:104E2000969587957A95E1F78170907080935A04F2
:104E30008EE00E94620181E00E9441026FE772E011
:104E40008CE10E944C1B0E94AD1B0E94731B66E507
:104E50007AE287E10E944C1B6FEF70E885E10E94C7
:104E60004C1B84C0C09886E00E9441020E94AD1B8A
:104E70000E94731B0E94451CC09AC09883E00E9448
:104E80004102C09A81E00E94B81A8DE08FCFC0988D
:104E90008FB7F894082F112760E080E00E94F3009C
:104EA000882311F00FBF0AC00FBF83E50E9489015C
:104EB00080E00E94890180E00E948901C09A82E01E
:104EC0002DC08FB7F894992720912A018FBF2430E5
:104ED00039F0283041F0223001F50E94BE1B3CC25F
:104EE0000E944F1F39C2C09889E00E944102C09AB7
:104EF00083E00E94B81A8FB7F894992721E030E038
:104F000030932B0120932A018FBF8FB7F8949927F4
:104F1000109324018FBF8BE049CF83E00E94B81A21
:104F20001BC20E94F51918C20FB7F89411274091BF
:104F3000FA035091FB0360911B0570911C05809151
:104F4000CF059091D00510921C0510921B05109270
:104F5000D0051092CF051092FB031092FA03109225
:104F6000E6041092E50420E00E9438200FBFF4C14F
:104F70002FB7F894332780913B048093070182E098
:104F8000809329012FBF80910701882309F0E4C194
:104F9000B89AC0988FE00ACFA091F803B091F903B6
:104FA0001C919D01210F311DF9018081881F8827E7
:104FB000881FFD0183A7F90180818F77FD0181A7FB
:104FC00021503040F9018081FD0180A7A091F803B4
:104FD000B091F903FD0132818FB7F89499272091A0
:104FE00039048FBF222309F490C0832F9927969507
:104FF000879596958795837090708230910541F5DD
:10500000878146812FB7F8943327609157047091B8
:1050100058042FBF9927982F88275527842B952B25
:105020008617970719F481E090E06CC0FD01878135
:10503000268140E050E09927982F88273327822B3C
:10504000932B8F5F9F4F11F441E050E0CA015AC08B
:10505000039709F0FAC09E012F5F3F4F40E655E0ED
:1050600088E0FA010190AF01F90101929F0181509E
:10507000C1F79E012F5D3F4FAE014F5F5F4F88E04C
:10508000FA010190AF01F90101929F018150C1F72E
:105090009E01275F3F4FAE014F5D5F4F88E0FA01F1
:1050A0000190AF01F90101929F018150C1F79E016A
:1050B0002F5E3F4FAE01475F5F4F88E0FA010190DE
:1050C000AF01F90101929F018150C1F79E01275E56
:1050D0003F4FAE014F5E5F4F88E0FA010190AF0194
:1050E000F90101929F018150C1F748E050E0BE01F3
:1050F000675E7F4FCD0106960E943133892B09F000
:10510000A4C003C0882309F4A0C01D3008F49DC0CA
:10511000E090F803F090F903F7012281822F99279C
:1051200006E0969587950A95E1F7039719F468E0EC
:1051300070E002C062E070E0822F99279695879513
:105140009695879583709070039719F488E090E0A6
:1051500002C082E090E026E030E0E20EF31E40E084
:1051600050E020E030E0F701E80FF91F8AEF9FEFF1
:10517000E80EF91E05C08191480F511D2F5F3F4F6A
:1051800026173707C4F3F70163818FEF8093CD05AE
:105190008FB7F894782F20E030E0E1E0F4E08081F0
:1051A00091818417950729F48281861731F1209324
:1051B000CD052F5F3F4F33962430310581F77FBFF8
:1051C0009091CD053FB7F8949F3F21F080912D013C
:1051D0008917A9F420912D01822F9927FC01EE0F48
:1051E000FF1FE80FF91FEF5FFB4F5183408362837E
:1051F0002F5F237020932D010EC07FBF22C0892F07
:105200009927FC01EE0FFF1FE80FF91FEF5FFB4F1F
:10521000518340836283832F99278FBF0FB7F89400
:105220001127C7010E949500FC0190810FBFF70173
:1052300083A5882331F09F3321F48FB7F894992701
:105240008FBFF092F903E092F8038FB7F894992793
:1052500010923F048FBF0E94061B7EC090914B04AA
:1052600080910B01981709F477C090930B01992353
:10527000D1F400912E0110912F0160916004C801BA
:105280000E947D1C482F5527442309F465C08FEFE9
:1052900080930B0160912E0170912F01F80183859D
:1052A0000E94121F59C08FEF80930B0155C0000F51
:1052B0002091CA05802F8223F1F0E12FFF27EE0F06
:1052C000FF1FE951FB4F4081518111821082802FD5
:1052D000809528232093CA05112319F0113059F421
:1052E00005C063E0CA010E942D1E33C063E0CA01FD
:1052F0000E94C41D2EC01F5F1830C8F22DC08091BF
:105300000E01E82FFF27EE0FFF1FE951FB4F6081D1
:10531000718141E00E949E1E1FC081E080930301C5
:1053200010922301379867C980912201E82EFF244B
:10533000870144C981E08093020110921D0180938E
:105340001E0182E0B8C980911C01E82EFF2487016C
:1053500097C9000F1F5FACCFA8960FB6F894DEBFB9
:105360000FBECDBFDF91CF911F910F91FF90EF90B6
:10537000DF90CF90BF90AF909F908F907F906F9075
:105380005F904F903F902F9008958091C5058F3F7B
:10539000B1F0282F3327F901E85EFB4F808180931D
:1053A000C5058F3F11F48093D4058FEF80832F3F85
:1053B00031F0822F0E94442281E090E0089580E045
:1053C00090E008951F93CF93DF93CDB7DEB7E097BA
:1053D0000FB6F894DEBF0FBECDBF1FB7F89446E1FD
:1053E00050E06FEF70E088E194E00E9447338FEF68
:1053F0008093C5058093D40581E08EBD88E080BF91
:1054000083E083BF8CB59DB54AE72CB53DB5281721
:10541000390708F44150442311F0C901F6CF92B77F
:1054200082B78917E9F32CB53DB592B782B78917D2
:10543000E9F38CB59DB5821B930B409625E09695BC
:1054400087952A95E1F79093C7058093C60513BE0B
:1054500083B78EBD8EB580BF12BE1DBC1CBC8FEF46
:1054600086BF86B780937C0080B79927877090703D
:10547000892BD1F7D29AD19AD09ADA9AD99AD89A16
:1054800015BA8FEF84BBD498DC981DBC1CBC87B7C1
:10549000846087BF8EB5887F84608EBD16B80E94F9
:1054A000C5298823E1F78FEF80933C04E1E0F4E025
:1054B0008FEF9FEF918380831282339624E0ED304B
:1054C000F207C1F70E946B0260936B0580910001A7
:1054D000909101010196AA27BB27809346049093DF
:1054E0004704A0934804B093490480E995E0909361
:1054F000F9038093F8038E98B89A8C988FEF809375
:10550000520410925A0510925B0510925C0510929D
:105510005D05B89AD69AD59A8FB7F89499272091B5
:105520000801309109018FBF30935804209357042C
:105530000E94A10629A73AA74BA75CA76DA77EA743
:105540008FA798ABDE019196FE01B99688E0019095
:105550000D928150E1F7DE015196FE01B19688E08F
:1055600001900D928150E1F7DE015996FE0171968E
:1055700088E001900D928150E1F7A0E6B5E0FE01D0
:10558000799688E001900D928150E1F780910A01AF
:10559000992790934104809340048FE180935305B1
:1055A0008AE1809369050E94A10629A73AA74BA723
:1055B0005CA76DA77EA78FA798ABDE019196FE0131
:1055C000B99688E001900D928150E1F7DE011196C5
:1055D000FE01B19688E001900D928150E1F7DE0165
:1055E0001996FE01319688E001900D928150E1F705
:1055F000A0E6B5E0FE01399688E001900D92815059
:10560000E1F7A0E6B5E0FD0137969C9180818D938E
:105610009083319785E0E336F807B9F781E080930E
:1056200039041092CE058093430410925F0580B731
:10563000886080BF8BE083BF86EE81BF87B78260C2
:1056400087BF0E945804109216041092ED040E9425
:10565000C5298823E1F7812F99278FBF78942FB729
:10566000F8943327809164008260809364002FBF98
:105670002FB7F8943327809165008260809365008E
:105680002FBF41E050E060E070E083E00E9425041D
:105690008FB7F894482F55274BC087B79927837049
:1056A0009070892B19F4E5E0F0E013C080B79927DA
:1056B00087709070892BD1F781B792B7891B8C3096
:1056C00030F082B7853F18F4E3E0F0E002C0E2E09A
:1056D000F0E087B7887BC1F480917D008B7FA1F4D7
:1056E0006E9912C08AB190919A00892B887161F4E9
:1056F0008091740082FD08C0379B03C081E090E078
:1057000005C085E090E002C080E090E025B78E17EC
:1057100008F4E82FFF27EA52FF4FE491237E20622E
:10572000E22BE5BF78948895F89485B78F7D85BF87
:105730008091C5058F3F09F4B0CF282F3327F90199
:10574000E85EFB4F80818093C5058F3F11F4809305
:10575000D4058FEF80832F3F09F49FCF4FBF822F57
:105760000E94442295CF78941F920F920FB60F9209
:1057700011242F923F924F925F926F927F928F925D
:105780009F92AF92BF92CF92DF92EF92FF920F93D0
:105790001F932F933F934F935F936F937F938F93B9
:1057A0009F93AF93BF93CF93DF93EF93FF93C6B5D0
:1057B000D7B58FB7F894282E0E94EB029B012C1BC3
:1057C0003D0B442755272B013C01421A530A640A1A
:1057D000750A80912A0190912B018530910521F065
:1057E000069709F0E0C0BFC086E090E090932B01DF
:1057F00080932A0131E0332E30923D0410922C0127
:1058000080E00E94CC03E0914404F091450441AA59
:10581000BB27A72D962D852D80ABC301AA27BB27BB
:1058200087A7872D9927AA27BB2786A7E09144043D
:10583000F091450485A5882309F484C060816550F2
:1058400077274F01860E971EF4012081E180828127
:10585000A3809927AA27BB27BA2FA92F982F88277B
:10586000332744275527522F442733272227FF2445
:10587000002711278701FF24EE242E293F29402BE2
:10588000512BBB24CC24DD242A293B294C295D291A
:10589000822B932BA42BB52B84199509A609B70944
:1058A0008383292F3A2F4B2F552722839D0144278D
:1058B000552721838B2F9927AA27BB278083C09840
:1058C00024E0A40180E090E00E94041CC09AF4014E
:1058D0002081E1808281A3809927AA27BB27BA2F44
:1058E000A92F982F8827332744275527522F44273D
:1058F00033272227FF24002711278701FF24EE24C6
:105900002E293F29402B512BBB24CC24DD242A29CE
:105910003B294C295D29822B932BA42BB52B840D7D
:10592000951DA61DB71D8383292F3A2F4B2F552771
:1059300022839D014427552721838B2F9927AA274E
:10594000BB278083E0914404F0914504818185FF69
:1059500002C03092170483E00E94B81A87B78F7E86
:1059600087BF84997AC010923D0481E00E94CC03E5
:10597000E0914404F0914504818185FF0FC087E0E8
:1059800090E090932B0180932A010E94EB0220E08B
:1059900031E040E050E00E94A80303C080E00E9494
:1059A000EF1D849B5AC080912C01882391F5809132
:1059B0003D04882371F511E010933D040E94CC034F
:1059C00080B32091C405283098F4E091C905E20F16
:1059D000FF27E770F070EE0FFF1FEE0FFF1FE0597B
:1059E000FA4F40825182628273822F5F2093C405F6
:1059F00010932C01D0935E04C0935D0484992DC054
:105A0000992734E0969587953A95E1F7182F11700C
:105A100001C010E080913D048130F9F410923D0402
:105A20000E94CC0310922C011123B9F480915D04E3
:105A300090915E04C81BD90B2A9778F48091C40515
:105A4000882319F081508093C4058091440490917B
:105A50004504009711F00E945C022FBEFF91EF9168
:105A6000DF91CF91BF91AF919F918F917F916F9176
:105A70005F914F913F912F911F910F91FF90EF9068
:105A8000DF90CF90BF90AF909F908F907F906F905E
:105A90005F904F903F902F900F900FBE0F901F90F0
:105AA0001895ACE2B0E0E7E5FDE20C94E231222E7D
:105AB000332E442E552E662E772E882E992EFE01DB
:105AC0003196A8E01192AA95E9F729823A824B8291
:105AD0005C826D827E828F829886FE013996B8E064
